:400000000040002011000000ED100000ED10000080B500AF01F074F880B500AF254B12221A6002F06BFB244B180002F099FB012002F074FB0C2002F02BF9204B204A1A609A
:40004000204B8022D2051A601F4B1F4A126802210A431A601D4B1E4A1A601E4B00221A601D4B1D4A126808218A431A60FA23DB00180002F05BF9194B180002F08FFA184B33
:40008000C022D2001A60174B174A1A60174B802212061A60164B00221A60164B40221A60084B8022D2051A60024B00221A60C046BD4680BD30001040001BB70004010B40EE
:4000C000060000800C020B4078002E407C002E402D3E000064F02E406CF02E40DC050000000301400000014040FF008008010B4000010B400401014080B582B000AF72B611
:40010000324B00221A60FB1D00221A7022E0FB1D1A7813005B009B185B002D4A9B183B603B681A78597809020A43997809040A43DB781B06134318003B681A795B791B0223
:4001400013439BB2190000F0ADFFFB1D1A78FB1D01321A70FB1D1B78012BD8D91D4BEE2212061A601C4BEE221A601C4B992212041A601B4B992212041A601A4B992212048C
:400180001A60194A184B1B78DBB206210B43DBB21370164BD82212041A60154B80221A60144B8022D2031A60134B8022D2011A60124B03221A60124B124A1A60FFF72CFF06
:4001C00000F080FFC046BD4602B080BD6CF02E40587F0100000002400003024000500F4020500F4030500F4000700F400800044000020440080204400C020440000304400A
:40020000080304402400000210B5064C2378002B07D1054B002B02D0044800E000BF0123237010BD4811002000000000547F0100084B10B5002B03D00749084800E000BF36
:4002400007480368002B00D110BD064B002BFBD09847F9E7000000004C110020547F0100E00B00200000000080B500AF00F034F806F038F800F0F0F8144B1B78002B12D09C
:4002800000F0F0FE00F078FE114B1B78013BDAB20F4B1A700E4B1B78002B04D10C4B20221A7000F039F800F013F90A4B1B78002BDED0084B00221A70002001F057F80020F3
:4002C00001F08CFE062001F071FED1E775110020E50B00207411002080B500AF62B60C4B180000F0AFFF01F0BDFB0A4B180001F0C3FE002001F080FF062001F065FF0120ED
:4003000001F03AFF062001F01FFFC046BD4680BDC50C00006105000080B500AF424B1B78002B07D1414B1B78002B03D1404B1B78002B01D000F060FA3B4B1B78002B22D022
:400340003C4B1A683C4B1B689A421CD0394B1B68DAB23A4B1A70374B1B681B12DAB2374B5A70344B1B681B14DAB2344B9A70314B1B681B16DAB2314BDA702E4B1A682E4BBA
:400380001A6000F099FD294B1B78002B22D02C4B1A682C4B1B689A421CD0294B1B68DAB2294B1A70264B1B681B12DAB2264B5A70234B1B681B14DAB2234B9A70204B1B68E3
:4003C0001B16DAB2204BDA701D4B1A681D4B1A6000F092FD164B1B78002B22D01B4B1A681B4B1B689A421CD0184B1B68DAB2194B1A70164B1B681B12DAB2164B5A70134B10
:400400001B681B14DAB2134B9A70104B1B681B16DAB2104BDA700D4B1A680D4B1A6000F08BFDC046BD4680BD7711002078110020791100203C2300201C23002090230020C0
:4004400078230020142300208C23002050230020182300209823002080B500AF184B1B78032B16D1174B1B78013BDAB2154B1A70144B1B78002B1FD1124B32221A7001F003
:40048000D5FD03005A425341DBB2180001F0A6FD12E00D4B1A6896235B009A4206DD002001F09CFD094B01221A6005E0012001F095FD064B00221A60C046BD4680BDC04602
:4004C000AC230020E60B00201C2300201023002080B500AF01F046FD1E4B1B78002B05D0002001F071FE002001F02EFE032005F0F1FE03001A00184B1A7072B607F0F4FE57
:4005000003001A00154B1A70134B1B78032B0AD1124B1B78042B03D0104B1B78062B08D102F06AF805E00D4B1B78022B01D002F049F862B6074B1B78002B05D0062001F067
:4005400043FE062001F000FE01F022FDC046BD4680BDC046E40B0020641100206511002080B500AF01F0E6FD01F06EFDC046BD4680BDC04680B500AF4A49002301227720DB
:4005800001F06AFBC04601F097FC020002231340F9D001F0B3FC444900231622772001F0EFFBC04601F088FC020001231340F9D001F0A4FC3D4B01221A703B4B1B781B0265
:4005C0001AB2394B5B781BB213431AB2384B1A80354B9B781B021AB2334BDB781BB213431AB2344B1A80304B1B791B021AB22E4B5B791BB213431AB22F4B1A802A4B9B79A6
:400600001B021AB2284BDB791BB213431BB29AB22A4B1A80244B1B7A1B021AB2224B5B7A1BB213431BB29AB2254B1A801E4B9B7A1B021AB21C4BDB7A1BB213431BB29AB2EB
:40064000204B1A80184B1B7B1B021AB2164B5B7B1BB213431AB21C4B1A80134B9B7B1B021AB2114BDB7B1BB213431AB2174B1A800D4B9B7C1B021AB20B4BDB7C1BB213434A
:400680001AB2134B1A80084B1B7D1B021AB2064B5B7D1BB213431AB20E4B1A80C046BD4680BDC046F00B0020202300206811002038230020602300206223002058230020D6
:4006C0004C2300203A2300207423002064230020802300203623002080B500AF1D4900230222772001F0B8FAC04601F0E5FB020002231340F9D001F001FC052001F028FF44
:40070000154900230122772001F0A6FAC04601F0D3FB020002231340F9D001F0EFFB0F4900230222772001F02BFBC04601F0C4FB020001231340F9D001F0E0FB074B1B7814
:400740001B02064A52781A43054B1A60C046BD4680BDC046F40B0020F80B00206C1100204423002080B500AF1F4900230222772001F072FAC04601F09FFB020002231340D7
:40078000F9D001F0BBFB1A2001F0E2FE174900230122772001F060FAC04601F08DFB020002231340F9D001F0A9FB114900230322772001F0E5FAC04601F07EFB0200012340
:4007C0001340F9D001F09AFB094B1B781A04084B5B781B021343064A927813435A11054B1A60C046BD4680BDFC0B0020000C0020701100207C230020B0B500AFA74B1B7842
:40080000002B01D1FFF7B6FEFFF766FFFFF7AAFFA34B1B68A34A12889B1AA34A12885343180005F043FC0022A04B04F0F7F903000C001800210005F003FC02009C4B1A6071
:400840009C4B00229B5E180005F030FC00229A4B04F008FE03000C0025001C00974B00229B5E1A00924B1B68D318180005F01EFC02000B002000290004F0D0F903000C0041
:400880001800210005F0DCFB02008D4B1A60884B1A688B4B1B68D2188A4B1A60894B1B680833180005F002FC0022874B04F0B6F903000C001800210005F0C2FB0200834BFA
:4008C0001A60804B1B68824A9A18824B1A60824B00229B5E180005F0E9FB04000D007D4B1A687C4B1B685343180005F0DFFB00227A4B04F093F902000B002000290004F0BF
:40090000B1FD03000C001800210000226A4B04F085F903000C001800210005F091FB0200634B1A606E4B00229B5E1A00694B1B685343180005F0BAFB00225F4B04F06EF9E1
:4009400003000C001800210005F07AFB02005C4B1A60574B1A685A4B1B68D218614B1A60614B00229B5E9A005E4B1B68D318DB000233002B00DA03339B101A005B4B1A609E
:400980005B4B00229B5E1A00524B1B685343180005F08CFB0022574B04F040F903000C001800210005F04CFB0200414B1A60524B00229B5E180005F079FB04000D00454BBB
:4009C0001A68444B1B685343180005F06FFB0022424B04F023F902000B002000290004F041FD03000C00180021000022434B04F015F903000C001800210005F021FB0200BA
:400A00002F4B1A602A4B1A682D4B1B68D3180233180005F04BFB0022394B04F0FFF803000C001800210005F00BFB02002D4B1A60344B1B881A002B4B1B68802109028C46E2
:400A400063445343180005F073FB0022174B04F0E5F803000C001800210003F095FD0200294B1A60294B1B681A00204B1B68D31A274A5A43274B1A60264B1B68002B4DDB7F
:400A8000244B1B685A00204B1B681900100003F0C7FB03001A00204B1A604CE068110020442300203A2300204C2300200000E0405C230020802300200000A04036230020E9
:400AC0004823002054230020000030403C23002060F0FFFF40230020642300200000B04060230020682300203823002084230020622300200000C040742300200000F04061
:400B000000001040582300206C2300207C2300206A1800007023002078230020584B1A68584B1B681900100003F07AFB03005B001A00554B1A60544B1B68180005F0B6FA1F
:400B40000022524B04F06AF803000C0025001C004D4B1B68180005F0A9FA00224B4B04F05DF802000B002000290004F07BFC03000C001800210005F063FA0200444B1A60DE
:400B8000434B1B68434A5343180005F08FFA0022414B04F043F803000C001800210005F04FFA02003A4B1A60374B1B683B4A5343180005F07BFA0022374B04F02FF80300A3
:400BC0000C001800210005F03BFA0200344B1A602D4B1B68180005F069FA04000D002C4B1A682F4B1B68D3182E4A94466344180005F05CFA00222C4B04F010F802000B0030
:400C00002000290003F0DEFC03000C001800210005F016FA02001C4B1A601B4B1B68180005F044FA214B5C681B681A00230003F0F5FF03000C00180021001D4B1D4C1A0030
:400C4000230001F0C7FF03000C001A0023000020194904F081FE03000C00180021000022164B04F0FFFB03000C001800210005F0E7F90200124B1A60C046BD46B0BDC0462E
:400C8000702300206C23002078230020000070405C230020DE0B00000000F04043E3FFFF48230020CF0E000000003040E80B00206C45D9CC955BC83F0000F03F40A5E5401A
:400CC0005023002080B582B000AF786039607B68282B26D006D8052B15D0262B18D0012B0DD0BCE0422B2FD002D8412B1DD0B6E04C2B00D17CE0712B00D1ABE0AFE05A4BD8
:400D000001221A70ABE03B681A78584B1A70A6E0574B1B78042B00D0A0E0534B01221A709CE0514B01221A7099E0524A3B681000190002231A0005F08CFA4F4B01221A70ED
:400D40004E4B00221A708AE04B4B00221A704C4B00221A704B4B00221A704B4B00221A704A4B01221A704A4B01221A70494B01221A70494B00221A70474B1A78464B5A7037
:400D8000454B5A78444B9A70434B9A78424BDA70424B00221A70414B1A78404B5A703F4B5A783E4B9A703D4B9A783C4BDA703C4B00221A703A4B1A78394B5A70384B5A78CE
:400DC000374B9A70364B9A78354BDA70354B00221A60354B00221A60344B00221A60274B01221A70324B01221A7000F0C5F836E0304B3A681A602F4B1B689B890F2B08D1E0
:400E00002C4B1B685B681A781D4B1A701F4B01221A70284B1B689B89132B08D1254B1B685B681A78174B1A70194B01221A70214B1B689B89172B08D11E4B1B685B681A7875
:400E4000114B1A70134B01221A700A4B186811F06FFA04E0164B00221A7000E0C046C046BD4602B080BDC0467411002076110020AC2300208011002075110020E40B0020CC
:400E80007711002078110020791100207A1100207B1100207C110020902300208C230020982300201C2300201423002018230020040C00208411002080B500AF0A4B1B78F4
:400EC000002B0ED1094B0E221A81084B084A1A60064B04229A80054A064B1100186811F0DBF9C046BD4680BD7611002088110020902300208011002080B500AF0A4B1B781D
:400F0000002B0ED1094B12221A81084B084A1A60064B04229A80054A064B1100186811F0BBF9C046BD4680BD76110020941100208C2300208011002080B500AF0A4B1B78F0
:400F4000002B0ED1094B16221A81084B084A1A60064B04229A80054A064B1100186811F09BF9C046BD4680BD76110020A0110020982300208011002080B500AF2C4B1B7892
:400F8000002B18D02A4B00221A702A4B1A782A4B1A70294B00225A70284B0F221A81274B254A1A60254B02229A80254A23480023002112F0E3FB234B1B78002B18D0214BD1
:400FC00000221A70204B1A78204B1A701F4B00225A701F4B13221A811D4B1C4A1A601C4B02229A80164A1A480023002112F0C6FB184B1B78002B18D0164B00221A70164B96
:401000001A78164B1A70154B00225A70144B17221A81134B114A1A60114B02229A80084A0F480023002112F0A9FBC046BD4680BD7A110020771100209C230020AC110020FF
:40104000801100207B1100207811002088230020B81100207C1100207911002094230020C411002080B500AF0A4B1B78002B0DD0094B1B78002B09D0074B00221A70074B84
:401080001B78074A110018000DF0E2FFC046BD4680BDC04675110020040C002080110020080C002080B582B000AF786039603A687B680021180005F0D5F8C046BD4602B07C
:4010C00080BDC04680B500AF054B03221A60054B03221A60044B00221A60C046BD4680BD3000304030003140000E3F4080B500AF05F074F803001B680C2B00D1FEE7FEE74F
:4011000080B586B000AF224B7B61224B3B61204B7B6135E03B691B68FB603B695B68BB603B699B683B6000237B600CE0FB681A68BB681A60BB680433BB60FB680433FB60CB
:401140007B6804337B607A683B689A42EED13B69DB683B6000237B6008E0BB6800221A60BB680433BB607B6804337B607A683B689A42F2D13B6910333B617B69013B7B6126
:401180007B69002BC6D105F02FF8FFF76DF8FEE7010000006884010080B582B000AF154B144A126801218A431A6000237B600FE07B68032B04D8104B7A689200D35800E0D4
:4011C0000E4B0F4A796889008B507B6801337B607B682F2BECD9FEF78FFF0A4B00221A60044B044A126801210A431A60C046BD4602B080BD0000104000000000ED1000004B
:4012000000000020C000002080B500AF064B00221A70064B00221A70054B00221A7000F009F8C046BD4680BDB7230020B0230020B623002080B500AF00F0F4FBC046BD46EB
:4012400080BDC046B0B594B004AF78603E23FB1800221A802823FA183D4B1000190014231A0004F0F6FF3B4B1B78002B04D1FFF7CBFF384B01221A707B68002B5CD0364BBB
:401280007A681A603E23FB181B88002B29D11023FB181C22BA185A601023FB182022BA181A601023FB1800221A812023FB181B221A802023FB181B225A802023FB18042299
:4012C0001A711C23FB1800221A703E23FC180E23FA181023FB181100180005F0DFF8030023803E23FB181B88002B29D13E23FC182823FD18AE231A01184919480023029355
:4013000000230193052300932B0005F01DF8030023803E23FB181B88002B11D1114B01221A703E23FC18104B16221821180012F00DFA0300238003E03E23FB1801221A8017
:401340003E23FB181B881800BD4610B0B0BDC046647F0100D0110020A0230020C8000020A5160000AC230020C07F010090B585B000AF0200FB1D1A70FB1D1B78022B04D9EC
:401380000E23FB1801221A804AE0294B1B78042B41D1284B1B78DBB21A00042313403AD1FB1D1B78002B0BD1234B1E221A82224B5B6820221A80204B5B6830225A8010E036
:4013C000FB1D1B78012B0CD11B4B96221A821A4B5B68C822D2001A80174B5B688022D2015A80164BFA1D12781A700E23FC18124B18000FF0A9FD030023800E23FB181B8815
:40140000002B0DD10B4B1B78DBB204221343DAB2084B1A7004E00E23FB180422FF321A800E23FB181B881800BD4605B090BDC046AC230020B7230020600C0020B6230020B7
:4014400080B584B000AF78600A00FB1C1A700023BB60BB68002B20D07B689A79BB681A700F23FB1800221A7012E00F23FB181B780133BA68D3180F22BA18127879688A5C62
:401480001A700F23FB181A780F23FB1801321A700F23FB181B78052BE7D9C046BD4604B080BDC04680B582B000AF78607B681B789AB27B6801331B789BB21B029BB213439A
:4014C0009BB21800BD4602B080BDC04690B585B000AF78600F23FB1800221A707B689B890B22934232D17B68181D7A680F23FC184023002112F042F9030023700F23FB18B5
:401500001B78002B1AD17B685B681800FFF7CAFF03001A00022313409BB2002B07D00F4B1B687968822252001000984706E00B4B1B6879680622FF3210009847084B1B7830
:40154000DBB201229343DAB2054B1A700F23FB181B781800BD4605B090BDC046A0230020B723002090B585B000AF78600F23FC187B681800FFF7AAFF03002370154B1B783D
:40158000DBB21A00012313401FD10F23FB181B78002B16D00823FB1812229A707B689A890823FB181A800823FB180F22BA181278DA700823FA187B681100186810F02EFEE8
:4015C00003E07B68186810F0B3FEC046BD4605B090BDC046B723002080B582B000AF7860C046BD4602B080BD80B500AF044B00225A70034B00221A70C046BD4680BDC0469E
:40160000B423002080B582B000AF7860C046BD4602B080BD80B500AFC046BD4680BDC04680B584B000AF78600E23FB1800221A707B689B79002B1CD10F23FB1800221A70BD
:4016400012E00F23FB181B787A68D35C002B04D00E23FB1801221A700BE00F23FB181A780F23FB1801321A700F23FB181B78052BE7D90E23FB181B781800BD4604B080BD30
:4016800080B582B000AF0200BB1D1A80C046BD4602B080BD80B582B000AF7860C046BD4602B080BD80B588B000AF02003960FB1D1A70CD4B1B78DBB201221343DAB2CA4B17
:4016C0001A70FB1D1B78712B00D96BE19A00C74BD3181B689F461023FB1807221A701023FB1800225A701023FB18180006F05CFE1023FB1807221A701023FB1801225A70F0
:401700001023FB18180006F04FFE0023002B01D004F0DCFDB64B1B681800FFF781FF031E11D0B34B1B68180004F0E0FDB04B1B6800211800FFF784FEAD4B1B6801211800BA
:40174000FFF77EFE36E0AB4B1B781A003F231A40A94B1B789901FC231B010B401A43A74B1B781903F8235B020B401A43A44B1B785904FE231B040B401343BB61BB69DAB231
:40178000A04B1A70BB691B0ADAB29E4B5A70BB691B0CDAB29B4B9A709A4B180004F0A6FD984B00211800FFF74BFE964B01211800FFF746FE03200FF059FA0C23FB183F2209
:4017C0001A700C23FB1800225A700C23FB1818000FF06AFA8C4B04221A70EAE03B681800FFF710FFE5E03B681A78884B1A70E0E03B687B617B691B78002B00D0D4E07B69C3
:401800005B78002B0BD1824B0222DA80804B18229A807F4B7F4A1A607B697D4A5A60724B1B78DBB201229343DAB26F4B1A70BBE06D4B1B78DBB21A002023134000D0B5E0C4
:40184000754B1B78102B02D1734B0522DA70734B1B78714A110018000FF034FB03001A000A23FB181A800A23FB181B88002B06D06B4B1B680A22BA181100362098475A4B78
:401880001B78DBB201221343DAB2574B1A708DE03B681800FFF7FEFE8BE03B681800FFF7F9FE594B02221A7083E0574B04221A707FE0554B1B78022B00D179E04A4B1B7892
:4018C000DBB21A000123134000D171E0464B1B78DBB21A00042313400BD04B4B03221A70414B1B78DBB204229343DAB23E4B1A705EE03D4B1B78DBB21A00082313400BD0A3
:40190000414B04221A70384B1B78DBB208229343DAB2354B1A704BE03B4B1B78032B47D1394B04221A7043E03B681B881800FFF7A7FE3EE0394A3B681000190002231A00AC
:4019400004F087FC314B00221A70FFF763FE30E0FFF74AFE2DE03B685B88162B05D81E23FB183A6852881A8003E01E23FB1817221A801E23FB1819883B681A88002312048B
:40198000120C1B0C1B041343180010F051FC10E03B681800FFF7E6FD0BE03B681800FFF71BFE06E0C04604E0C04602E0C04600E0C0460D4B1B78DBB21A00112313400ED034
:4019C000094B1B78DBB201229343DAB2064B1A70134B1B68FA1D1278396810009847C046BD4608B080BDC046B7230020AC8101007C0C00207CF1FF0F7DF1FF0F7BF1FF0FBC
:401A000078F1FF0F740C0020AC230020B0230020D4110020A80B00206C0D0020B4230020A023002080B500AFC046BD4680BDC04680B500AF00F058F8C046BD4680BDC046C2
:401A400080B500AF064B064A1268802109060A431A6000F033F800F039F8C046BD4680BD0000244080B500AF064B1B78002B04D1FFF7DEFF034B01221A70FFF7E1FFC04698
:401A8000BD4680BDDC11002080B500AF092000F027FD00F021F8074B064A1268520052081A60054B00221A60092000F02FFDC046BD4680BD00002440880F244080B500AFB3
:401AC000092000F0F7FCC046BD4680BD80B500AFC046BD4680BDC04680B500AF00F070F8C046BD4680BDC04680B500AF204B00221A60204B204A1A60204B214A1A60214BE6
:401B000000221A60204B00221A60204B1C4A1A601F4B00221A60092000F0E2FC0321092000F074FC1B4B1900092000F049FC1A4B00221A60194B00221A60194B00221A602F
:401B4000184B00221A60184B00221A60174B00221A60174B10221A70164B00221A80164B00221A60154B00221A60C046BD4680BD0000244060002440880800800003244050
:401B8000070100800403244010032440000224400402244081270000C80E2440880E2440480F2440080F2440C80F2440880F2440B8230020C8230020D8230020C02300207F
:401BC00080B500AF054B00221A60054B00221A60044B10221A70C046BD4680BD680024406C002440B823002080B500AF124B124A1268520052081A60104B00221A60104BB2
:401C000000221A600F4B0F4A12680F490A401A600E4B00221A600E4B00221A600D4B10221A70054B044A1268802109060A431A60C046BD4680BDC0460000244068002440B6
:401C40006C00244060002440FF5CFFFF880F2440C80F2440B823002080B586B000AFF860B9607A603B6004237B61BB68002B20D0344B1B78DBB2102B0CD1092000F030FC09
:401C8000314B1B680122134001D0082300E000237B610EE02B4B1B78DBB2602B09D12B4B1B889BB2082293439AB2284B1A8000237B617B69002B3CD1224B28221A70244B61
:401CC00000221A60234B00221A60234B7A681A60224BBA681A603B68DAB2214B1A70FB685B00FF221340FB60184B1B889BB2022293439AB2154B1A801A4B40221A601A4B80
:401D00001A4A1A601A4B1422FF321A60194B40221A603B680122134005D000F007F9164BFA681A6005E0144BFA681A60134B02221A60092000F0BEFB7B691800BD4606B081
:401D400080BDC046B823002064002440C8230020BC230020C0230020C4230020DC230020D0230020800F2440000F244017030000080F2440880F24404002244068002440AF
:401D800080B586B000AFF860B9607A603B6004237B61BB68002B20D0394B1B78DBB2102B0CD1092000F09CFB364B1B680122134001D0082300E000237B610EE0304B1B7825
:401DC000DBB2602B09D1304B1B889BB2082293439AB22D4B1A8000237B617B69002B47D1274B29221A70294B00221A60284B7A681A60284BBA681A603B68DAB2264B1A70A3
:401E0000FB685B00FF22134001221343FB601E4B1B889BB2012293439AB21B4B1A801F4B1F4A1A601F4B1422FF321A60184B1B68072B03D81C4B04221A6009E01B4B1B4AB8
:401E40001268802149000A431A60174B08221A603B680122134005D000F068F8144BFA681A6005E0124BFA681A60124B02221A60092000F01FFB7B691800BD4606B080BD7A
:401E8000B823002064002440C8230020D8230020D4230020CC230020D0230020000F244017030000080F2440C80F244060002440400224406800244080B582B000AF092048
:401EC00000F00EFB0B4B1B889BB27B600A4B1B78DBB220221340DBB2002B03D07B68042213437B60092000F0E5FA7B681800BD4602B080BDC8230020B823002080B582B0A7
:401F000000AF092000F0ECFA074B1B889BB27B60054B00221A80092000F0CCFA7B681800BD4602B080BDC046C823002080B582B000AF01237B60094B1B682022134001D09B
:401F4000082300E000237A6813437B60044B7A681A60C046BD4602B080BDC046640024406800244080B500AF074B1B68DB0FDBB21A00064B1A70054B1B78002B01D0FFF7E9
:401F800083FDC046BD4680BD00002440E411002080B500AF044B1B78002B01D0FFF750FDC046BD4680BDC046E411002080B582B000AF0200FB1D1A70064B064A1268064958
:401FC0001140FA1D127892040A431A60C046BD4602B080BD08020440FFFFE3FF80B584B000AF0200FB1D1A700F4B1B68DAB20F23FB1840218A431A70FB1D1B789B01DBB276
:4020000040221340D9B20F23FB180F22BA1812780A431A70044B0F22BA1812781A60C046BD4604B080BDC0460002044080B500AF044B1B68402213409B09DBB21800BD4664
:4020400080BDC0460402044080B582B000AF094B1B68DAB2FB1D7F218A431A70054BFA1D12781A60FB1D1B78DB09DBB21800BD4602B080BD1002044080B582B000AF786076
:4020800000F04EF87B68180000F00AF8032000F015F800F03BF8C046BD4602B080BDC04680B582B000AF7860034B7A689A64C046BD4602B080BDC0460000002090B585B008
:4020C00000AF0200FB1D1A701623FB600B23FC1800F04FFB030023700A4B0A4A12680A491140FA1D1078FA68904002000A431A600B23FB181B78180000F03FFBC046BD4667
:4021000005B090BD00E400E0FFFF3FFF80B500AF024B04221A60C046BD4680BD00E100E080B500AF024B04221A60C046BD4680BD80E100E080B500AF024B04221A60C04696
:40214000BD4680BD80E200E080B582B000AF0200FB1D1A70064B064A126806491140FA1D127812030A431A60C046BD4602B080BD08030440FF8FFFFF80B584B000AF0200FE
:40218000FB1D1A700F4B1B68DAB20F23FB1810218A431A70FB1D1B781B01DBB210221340D9B20F23FB180F22BA1812780A431A70044B0F22BA1812781A60C046BD4604B027
:4021C00080BDC0460003044080B582B000AF0200FB1D1A70064B064A126806491140FA1D127892010A431A60C046BD4602B080BD080304403FFEFFFF80B584B000AF020049
:40220000FB1D1A700F4B1B68DAB20F23FB1804218A431A70FB1D1B789B00DBB204221340D9B20F23FB180F22BA1812780A431A70044B0F22BA1812781A60C046BD4604B03F
:4022400080BDC0460003044090B585B000AF78600F23FC1800F08DFA030023700A4B7A68D104E02292031140074A1268074802400A431A600F23FB181B78180000F07DFA12
:40228000C046BD4605B090BD00010B40FFFFC7FF90B58BB000AF78602723FC1800F069FA03002370194B1A680C23FB181A60184B1A680C23FB185A607B68033B154AD35C83
:4022C0001A000C23FB189A60134B1A680C23FB18DA601C23FB18114A1A600C23FA181C23FB185A600E4B1C22BA181A600D4B0E4A1A600B4B1B682723FB181B78180000F0DA
:402300003CFAC046BD460BB090BDC04608010B4000010B407483010030001040B6EA000008001040040010401700008080B584B000AF78600023FB60154B154A126801218C
:402340000A431A60134B144A1A60144B134A1268802109020A431A607B68002B12D01023FB600CE0012000F019F900F019F8031E02D00023FB6005E07B68013B7B607B68F6
:40238000002BEFD1FB681800BD4604B080BDC04660F02E4078002E400220000010002E4080B582B000AF054B1B68012213407B607B681800BD4602B080BDC0460C002E40D2
:4023C00080B584B000AF02003960FB1D1A7080239B05FB60FB1D1B781F2B02D9002000F0ABF8FB1D1B7810339B00FA68D3181B68BB60FB1D1B7810339B00FA68D3183A687B
:402400001A60BB681800BD4604B080BD90B587B000AF0200FB1D1A70BB1D0A1C1A70BB1D1B78032B02D9002000F086F8FB1D1B781F2B02D9002000F07FF8FB1D1B78032273
:402440001340DB0006337B611323FC1800F091F903002370FB1D1B789B08DBB29B00144A944663441B68FB6003227B699A401300DA43FB681340FB60BB1D1A787B699A4040
:402480001300FA681343FB60FB1D1B789B08DBB29B00074A94466344FA681A601323FB181B78180000F069F9C046BD4607B090BD00E400E080B582B000AF0200FB1D1A7001
:4024C000064BFA1D12781F210A40012191400A001A60C046BD4602B080BDC04600E100E080B582B000AF0200FB1D1A70064BFA1D12781F210A40012191400A001A60C04677
:40250000BD4602B080BDC04680E100E080B582B000AF0200FB1D1A70064BFA1D12781F210A40012191400A001A60C046BD4602B080BDC04680E200E080B582B000AF02005D
:40254000FB1D1A7001BEC046BD4602B080BDC04680B582B000AF786009E00D4B1B68180000F0FEF87B680B4A944663447B607A6880231B029A42F0D8074B1B687A68534325
:40258000180000F0EDF8C046BD4602B080BDC046800D00200080FFFF780D002080B582B000AF0200BB1D1A80BB1D1B88044A12785343180000F0D4F8C046BD4602B080BD21
:4025C0007C0D002090B583B000AFFC1D00F0D1F803002370074B074A126804218A431A6030BFFB1D1B78180000F0C7F8C046BD4603B090BD10ED00E090B583B000AFFC1D93
:4026000000F0B7F803002370114B114A1268520052081A600F4B104A128892B21A600F4B0E4A126804210A431A600D4B1B683B600220FFF709FE30BF094B3A681A60FB1DDE
:402640001B78180000F099F8C046BD4603B090BD00000B400C000B4052F1FF0F10ED00E000010B4080B500AF0F4B0F4A126801218A431A600C4B0C4A126802218A431A60FE
:402680000A4B0A4A126830218A4310210A431A60064B064A126807218A4301210A431A60C046BD4680BDC04600F02E4000FF2E4080B500AF0F4B0F4A126802218A431A6056
:4026C0000D4B0D4A126807218A4302210A431A60094B094A126830218A4320210A431A60044B044A126801210A431A60C046BD4680BDC04600F02E4000FF2E4080B500AF90
:40270000FFF7B0FF044B044A1268802109060A431A60C046BD4680BD00F02E4080B584B000AF78600C4B1B6801221340FB607B68002B02D0012B03D005E0FFF793FF06E0F5
:40274000FFF7B6FF03E00020FFF7F6FEC046FB681800BD4604B080BD00F02E40000000000230800803D00138FDD1C046C046C0467047EFF3108072B6704780F3108870477E
:4027800080B582B000AF00233B60C04B1B68002B02D0BE4B1B689847BD4B1B680122134002D0BC4B00221A60BB4B1B78DBB220221340DBB2002B38D0B84B1A6880235B00DB
:4027C00013400AD0B64B1B889BB2C022920013439AB2B34B1A8001233B60B04B1B68012213400AD0AE4B1B889BB29022920013439AB2AB4B1A8001233B603B68002B14D0B0
:40280000A54B1B78DBB201221340DBB2002B01D0012300E00223A24A128892B213439AB29F4B1A809C4B00221A709B4B1B78DBB220221340DBB2002B00D1A4E1974B1B68CF
:402840001022134018D0974B10221A60924B1B78DBB201221340DBB2002B01D0012300E002238F4A128892B213439AB28C4B1A80894B10221A7090E1874B1B78DBB2082251
:402880001340DBB2002B29D0844B1B68022213400ED0844B02221A60814B1B889BB28822920013439AB27E4B1A8001233B6015E0794B1B78DBB201221340DBB2002B03D06A
:4028C000754B25221A7009E0734B24221A70764B1B68002B02D0754B10221A606E4B1B78DBB204221340DBB2002B00D113E16A4B1B78DBB201221340DBB2002B5BD06C4B6F
:402900001B680822134033D06A4B1A686A4B1B681F211940694B1B68CB18D31A7B607B68082B02D908237B601EE07B68002B1BD1634B634A126863490A401A6008237B6070
:4029400001233B6010E0604B1A685C4B1B68D2185E4B1B68DBB21370584B1B685A1C574B1A607B68013B7B607B68002BEBD11EE04F4B1B680422134019D0534B1A684F4B78
:402980001B68D218514B1B68DBB213704B4B1B685A1C4A4B1A60494B1A68464B1B689A4203D24B4B04221A6001E001233B60494B494A1A60AFE0394B1B680222134032D07C
:4029C000384B02221A60454B1B681F221A40434B196880231B020B4001D0012300E00023D2183F4B1B689A1A3D4B1A603C4B1A683C4B1A602A4B1B889BB28422920013434C
:402A00009AB2274B1A80384B374A1268802149020A431A60344B344A126834490A401A6001233B6077E0324B1B681022134067D020E02B4B1A681C4B1B689A4221D21A4B6D
:402A40001B685A1E264B1B689A4205D1294B40221A60164B40221A60274A284B1968204B1B68CB181B78DBB213601D4B1B685A1C1B4B1A60194B1B681F221340082BD8D1C7
:402A800000E0C0461B4B10221A6044E0E01100208C0E2440880E2440B82300200C0F2440C8230020000F2440C4230020880F2440CC0F2440D423002008032440D823002017
:402AC00060002440FFFEFFFFCC2300204003244068002440C00F2440ED0F000008022440BC230020C023002004022440FFFFFEFF8C0F2440800F244040022440DC230020DA
:402B0000284B1B684022134005D0274B1A68274B1A6001233B603B68002B3ED0244B244A126824490A401A60234B00221A60234B00221A60224B1B78DBB202221340DBB26D
:402B4000002B15D01F4B1B78DBB201221340DBB2002B01D0092300E00A231B4A128892B213439AB2184B1A80164B60221A7014E0164B174A126820210A4001D0182200E08E
:402B800010221A6009E00F4B1B78DBB210221340DBB2002B01D1FFF727F8C046BD4602B080BDC0468C0F2440BC230020C023002060002440FFFEFFFFC80F2440880F2440EE
:402BC000D0230020B8230020C82300206800244064002440F0B55F464D4656464446F0B491B01F0004000D00160000F0AFF9CF4B029003919B461B785BB2994601334FD06F
:402C000032003B003000390003F0FAF90090002846D122002B002000290003F0F1F900228246002834D100232000290001F07EFC00283AD0002200233000390001F076FC65
:402C40000590002800D174E006AB9846012342460693B74B5360434652469C60DD601A621E615F614246002300249361D4614B46002B00D194E00023AE4C009301940098FE
:402C8000019911B03CBC90469946A246AB46F0BD00233000390001F049FC002800D0EBE0029B039C00930194E9E70298039900F07DFF8146002800D186E0029803990022AD
:402CC000002301F033FC0028EAD02000290000F06DFF029A039B009201930028CFD03000390000F063FF029A039B009201930028C5D006AB98460423424606938C4B946069
:402D0000D560536000230024136200239361D4615B461B78166157615BB2022B04D0404600F04EFF002840D103F058FA222303603BE03000390000F039FF029A039B0092D1
:402D4000019300289BD0002200233000390001F0F3FB002800D192E706AB9846012342460693734B53604346059A9C60DD601A621E615F615B461B785BB2002B0BD0002065
:402D800042466D499061D161022B09D103F026FA2123036009E04246002300249361D461404600F00DFF0028F0D043461B6A002B04D003F013FA43461B6A03604346DC695A
:402DC0009B69009301945AE72000290000F0EEFE002800D171E73000390000F0E7FE002800D16AE7029803990B00020003F008F906AB984600287AD10323424606934C4B51
:402E0000106253605B461B789460D5605BB2166157619946002B48D1E0224146474B12068A61CB61200000220023290001F084FB002800D173E70022414B3000390002F00D
:402E400011FB04000D0000F0C3FE02000B002000290001F06BFB002805D1E022394B120641468A61CB615B461B785BB299464B46022B00D053E757E706AB9846012342463C
:402E800006932B4B536043469C60DD600024009A284D1A621E615F619C61DD614B4600940195022B00D07BE7E9E600224146264B20008A61CB6100220023290001F03CFB95
:402EC0000028D4D000221E4B3000390002F0CAFA04000D0000F07CFE02000B002000290001F024FB0028BED10022134BB8E70123424606930E4B536043464A469C60DD6002
:402F00001A621E615F6100245B461C57002C00D141E7002300221900100001F07FFE43469861D961022C00D130E739E7DD100020A48301000000F03F0000F0FFFFFFEF4724
:402F40000000E03FFFFFEFC70000F07FF0B556464D4644465F46F0B41C001300670091B07F080093019406000D0080468946A2463B4332D06E4B6C0064089C4229DC26D068
:402F80009F4226DC6A4B9F4200D189E000239B464B46002B00DA87E0002A2FD1644B9F4200D19FE0634B9F425DD08023DB059A4501D100F0C1FB604B9A451FD14B46002B81
:402FC0001CDB3000290000F0F7FC060007E000280DD05A4BE01830430BD100265549300011B03CBC90469946A246AB46F0BDA742C8DD534800F0E6FD0600F0E730002900A6
:4030000000F0D0FD4346002B1DD0EB0F013B98465B464246134379D04A4B9F4200DC9FE0494B9F4201DC00F0CEFB484B9C4279DD5346002B79DD464A464B1000190002F05D
:4030400011FA0600CBE7002C04D03A4AAB009B089342DAD15346002B00DAADE34B46002B0DDB0600BBE753462900002BB7DA32002B0000202F4901F0D1FD0600AFE72F4B79
:403080009C465B4664441C4301D100F02BFC5B460600012BA3D180231B069C4661449EE7002A00D172E794E72B4B9F422BDC274B9F4200DC70E729493B158C466344142B59
:4030C00001DC00F0F2FB3421CB1A0099D94008009840824200D05FE70123194001335B1A9B4659E7154BE018064300D175E7174B9C4200DC51E35346002B16DB009B019C1E
:403100001E0021006BE702239B4645E732002B003000290002F020FC02000B0001F07EFD06005CE75346002B85DB0026002156E70000F07F0000F03F0000E03F000010C011
:40314000A88301000000E0410000F043FFFFEF3F9C7500883CE4377EFFFF3F4301FCFFFFE84B00229C4206DC0022E74B02F07AF935220C005242E54D2315AC466344994613
:403180002403E34DE34B240B914425439C4209DDE14B9C4200DCA9E301239C46DF4BE1449C466544002300240022089309940C930D940024D64B06920793069A079B290045
:4031C0000A900B9102F0C8FB069A079B06000F000A980B9901F0F6F902000B000020CC4901F01CFD0A00010013000E910F9202003900300002F036F90A00010080200491F1
:4032000005921300002280210003844602920393002289056D100D4365442B190298039914001D0002F01EF902000B003000390002F092FB069A079B06000F0020002900BB
:4032400002F08AFB02000B000A980B9902F084FB029A039B02F006F902000B003000390002F07AFB0E9A0F9B02F0FCF8049D059E069007912A0033002800310002F0F2F8CF
:4032800006000F00A64AA74B02F0ECF8A64AA74B01F098F932003B0002F0E4F8A44AA54B01F090F932003B0002F0DCF8A24AA34B01F088F932003B0002F0D4F8A04AA14BCA
:4032C00001F080F932003B0002F0CCF89E4A9F4B01F078F9320004000D003B003000390002F0C0F802000B002000290002F0BAF8029E039F04000D000498059932003B0088
:4033000001F060F9069A079B02F0ACF822002B0001F058F932000A900B913B00300039000296039702F09EF80022894B04000D0001F048F90A9A0B9B01F044F900260F0030
:4033400032000B000298039902F08CF80022029003917F4B3000390002F0FEFA22002B0002F0FAFA02000B000A980B9902F0F4FA049A059B02F076F8320004000D0006981A
:4033800007993B0002F06EF802000B002000290001F018F904000D0002000B000298039901F010F90026E0226A4B120630000F0002F058F8029A039B0490059130003900F1
:4033C00002F0CAFA02000B002000290002F0C4FA614A604B02F046F8604A04000D00604B3000390002F03EF802000B002000290001F0E8F80C9A0D9B01F0E4F806004846BE
:403400000F0002F053FE04000D000498059932003B0001F0D7F8089A099B01F0D3F822002B0001F0CFF8002022002B000290039102F092FA089A099B02F08EFA049A059BAC
:4034400002F08AFA02000B003000390002F084FA049005915B464246013B134300D197E100232B4C069307940098019900260B0032000F0002F070FA029A039B01F0F2FFD8
:40348000009A019B04000D000498059901F0EAFF02000B002000290001F094F804000D00029803993B0032000494059501F0DAFF009001910B0002002900200001F082F84B
:4034C000284B81460F008A46994200DC3CE1264BCB18034300D0DBE104980599234A244B01F070F8009A019B04000D004846390002F032FA02000B002000290001F030F8AF
:403500003E0037E0FFFF0F000000404301FCFFFF0000F03F8E98030079B60B000000F0FFEF4E454A287ECA3F65DBC9934A86CD3F01411DA96074D13F4D268F515555D53F3A
:40354000FFAB6FDBB66DDB3F033333333333E33F0000084009C7EE3FFD033ADCF5015B14E02F3EBEFFFF8F40000070BFFE822B654715973C002800D08AE18022E74B520364
:403580009C461300361566443341E549DB195E001C001B038C461B0B13431422760DE14F66443741961B334198465346BC4300202100002B00DAA9E102000B0000980199F0
:4035C00002F0CAF90B000090019102000498059900F0F8FF43461B05994600200022D24B06000F0001F03EFF009A019B029003913000390002F0B0F902000B0004980599F5
:4036000002F0AAF9C94ACA4B01F02CFFC94A04000D00C94B3000390001F024FF02000B002000290000F0CEFF04000D0002000B000298039900F0C6FF029A039B06000F0091
:4036400002F08AF902000B002000290002F084F93200009001913B003000390001F002FF04000D00B54AB64B01F0FCFEB54AB64B02F072F922002B0001F0F4FEB34AB44BA1
:4036800000F0A0FF22002B0001F0ECFEB14AB24B02F062F922002B0001F0E4FEAF4AB04B00F090FF22002B0001F0DCFE02000B003000390002F050F904000D0002000B0094
:4036C0003000390001F0CEFE8023029003910022DB052000290002F03FF902000B000298039901F09BFA009A019B04000D003000390001F0B7FE009A019B00F063FF0200BD
:403700000B002000290002F027F932003B0002F023F902000B000020924902F01DF94B465B181A15002A00DCF4E01900069A079B01F098FE060052E4320030002B002900B7
:4037400001F090FE06004AE4874B4E0076089E4200DCBFE0854BCB1803430CD1009A019B02F0FAF802000B000498059900F0EEFE002800D101E7069807997D4A7D4B01F0EB
:4037800071FE7B4A7B4B01F06DFE0600FFF727FC0023794C0693079466E65346002B00DBC3E4009B019C802212061E009446230063441900FFF713FC02000B000020694935
:4037C00001F02CFA4AE46D4B9C4200DCAAE4654B9C4201DDFFF72CFC0022624B02F0BCF8C022674BD20504000D0001F03BFE654A06000F00644B2000290001F033FE0022DF
:4038000002900391614B2000290001F02BFE02000B005F485F4902F09FF822002B0001F021FE02000B0000205B4902F095F82200049005912B002000290001F013FE0200FD
:403840000B000498059901F00DFE544A4C4B01F009FE02000B000298039902F07DF802000B0004000D003000390000F0ABFE002210003B0032000290039102F06DF80200F2
:403880000B002000290002F067F804900591E1E5434A444B0698079901F0E4FD404A414B01F0E0FD0600FFF79AFB002A01D0FFF7A5FB1432D31A3A001A41110099408F42BE
:4038C00001D0FFF76FFB012313400222D31A9B46FFF768FB304B9E4200DD4EE60023994698467AE602000B00FFF714FC80232E4CDB05089309942D4B2D4C00220C930D948E
:4039000080242C4BE4020692079356E443465B42984651E6424600F0FDF907E702FCFFFF01FCFFFFFFFF0F00432EE63FEF39FAFE422EE63F396CA80C615C20BED0A4BE729C
:403940006937663EF16BD2C541BDBB3E2CDE25AF6A56113F93BDBE166CC1663F3E5555555555C53F0000F03FFFCB904000346F3F59F3F8C21F6EA5010000F0BFFEFFEF3F8C
:403980004715F73F44DF5DF80BAE543E0000D03F555555555555D53F0000E03FFE822B659C7500883CE4377E03B8E23F06D0CF43EBFD4C3E0000F83FF0B556464D46444629
:4039C0005F46754BF0B40A000D00190083B0060004002940994200D1BAE0002D00DC94E02D1500D1A3E06D4B12039C468023120B5B0365441A43EB0700D581E06B1098463B
:403A0000E30F9B189B18802216210026002764009203B818984202DC87181B1AB618E00F5B0001391B18640052080029F1D1002201929446802212062020914609E09F425B
:403A400041D0E10FC9180138CB186400520800281ED0614651189F42F1DA8D18AC46CD0FED07BA464D4539D0DB1B8C42BF417F42DB1B641A019901388B4693445946019111
:403A8000E10FC9185746CB18640052080028E0D123432BD1019B5B08414972108C466244F10702D5802109060B43414609058D181E002F003000390003B03CBC904699461C
:403AC000A246AB46F0BDA1420ED88D18AC46CD0FED074D4548D09A460023CAE76546002DC2DB7D1CAA46BFE73B00AAE7019B01333ED0019A01239446134063445B08CBE7BC
:403B0000E30F52009A18640078E76B005B0803432F00002BCED00025002A31D1E20A153D6405002AFAD080235B031A4223D180200023400300E00B005200591C0242FAD0BD
:403B40002020401AED1A2300C3408C401A434AE702002B00290001F085FC32002B0000F031FD06000F00A5E76546002DB9DAB2E70136002390E7012320205B420021E1E781
:403B80003B000200390001F0E7FE02000B0001F045F806000F008DE70000F07F01FCFFFF0000E03F49004B0819007047034B48009C4640086044C00F7047C0460000108080
:403BC00000207047002001497047C0460000F87FF0B5474680B4CB0F98464A4C4B005B0D1E1982B007000A00132E35DC002E57DB454B040033411F000F4007430D00002FC1
:403C000024D05B081C000C4020430027002807D0132E00D172E08022D202324199430A434346DE00394B11009E1934687568380022002B0000F0C6FC00900191009801990F
:403C400022002B0001F088FE04000D002000290002B004BC9046F0BD332E0CDD80230400DB000D009E42F1D102000B0000F0AAFC04000D00EAE7264C0D00A44601246344FC
:403C80006442DC40A446614604000142DED049080142C5D08027FF051F4188430743BFE74B005B08034304000D00002BCED00B031B0B03435A42134380221B0B1203134063
:403CC0004A0C5204134319004346104ADB00D3181C685D6822002B0000F074FC009001910098019922002B0001F036FE42464B005B08D607334304001D00A7E780273F0620
:403D000089E7C04601FCFFFFFFFF0F00B0830100EDFBFFFF4B0070B55B0D14000A00002B1AD14B005B08034315D00022224B01F099FB224B0A009C4222DB4B005B0D363B7C
:403D40001F4DE318AB4220DC002B0DDD1D4C1B0522401A43110070BD1B4DAB42F0D102000B0000F02FFCF6E71D00353518DA174B02009C420ADC0B001548164900F032F8BB
:403D8000134A144B01F06EFBE5E702000B001248124900F027F8104A104B01F063FBDAE7084C363322401B051343190000220C4B01F058FBCFE7C04600005043B03CFFFFE7
:403DC000FE070000FFFF0F80FF07000050C3000059F3F8C21F6EA5019C7500883CE4377E0000903C30B54A00DB0FDB0752081A43110030BD80B582B000AF78600A00BB1C26
:403E00001A80BB1C1A887B681A60C046BD4602B080BDC04680B582B000AF78600A00BB1C1A80BB1C1A887B681A60C046BD4602B080BDC04680B584B000AF494B1B78DBB20B
:403E40001B02484A1278D2B21343FB60464B1B78DBB21B02454A1278D2B21343BB60BB68434A934207D1FB68072B04D1414BBB600423FB6009E0BA68D4231B019A4204D139
:403E8000FB68042B01D13B4BBB603B4BBA681A603A4BFA681A603A4B1B78DBB21B02394A1278D2B21343FB60FA6880239B019A4202D0FB68002B01D1334BFB60334BFA680E
:403EC0001A60334B1B78DBB21B02324A1278D2B21343FB60FB68304A934206D0FB682F4A934202D0FB68052B01D12D4BFB602D4BFA681A602C4B1B681B097B602B4B1B68C9
:403F0000AA2B29D17B68012B26D9214B1B78DBB20E2B21D1264B1B78DBB29BB21B0299B2244B1B78DBB29AB2BB1C0A431A80224BBA1C12881A60214B1B78DBB29BB21B02C1
:403F400099B21F4B1B78DBB29AB23B000A431A801C4B3A0012881A60C046BD4604B080BDD9F0FF0FD8F0FF0FDFF0FF0FDEF0FF0F580B0000580D00006C002E4074002E4065
:403F8000DBF0FF0FDAF0FF0F0220000078002E40DDF0FF0FDCF0FF0F0F0F000005050000050F000080002E40EC0F00F0E00F00F06DF2FF0F6CF2FF0F84002E406FF2FF0F65
:403FC0006EF2FF0F94002E4080B582B000AF0200BB1D1A80BB1D1B881800FEF7DFFAC046BD4602B080BDC04680B582B000AF78607B681800FEF7ACFAC046BD4602B080BDEC
:4040000080B500AF00F0ECF8C046BD4680BDC04680B500AF00F0F0F8C046BD4680BDC04680B500AF00F0E8F8044B180000F0A2F8032000F0ADF8C046BD4680BD114200007E
:4040400080B500AF034B180000F080F8C046BD4680BDC0461142000080B500AF0223FF331800BD4680BDC04680B582B000AF78602B231800BD4602B080BDC04680B582B0A3
:4040800000AF78602B231800BD4602B080BDC04680B582B000AF78602B231800BD4602B080BDC04680B582B000AF78602B231800BD4602B080BDC04680B582B000AF786095
:4040C0002B231800BD4602B080BDC04680B582B000AF78602B231800BD4602B080BDC04680B582B000AF78602B231800BD4602B080BDC04680B582B000AF78602B23180076
:40410000BD4602B080BDC04680B500AF2B231800BD4680BD80B582B000AF0200FB1D1A702B231800BD4602B080BDC04680B582B000AF786039602B231800BD4602B080BD06
:4041400080B500AFC046BD4680BDC04680B582B000AF786000F050F87B68180000F00AF8032000F015F800F03BF8C046BD4602B080BDC04680B582B000AF7860034B7A689D
:404180001A67C046BD4602B080BDC0460000002090B585B000AF0200FB1D1A700623FB600B23FC18FEF7E5FA030023700B4B0B4A1268C0218A431100FA1D1078FA689040AE
:4041C00002000A431A600B23FB181B781800FEF7D4FAC046BD4605B090BDC0460CE400E080B500AF034B802252011A60C046BD4680BDC04600E100E080B500AF034B8022E4
:4042000052011A60C046BD4680BDC04680E100E080B500AF13F08AFEC046BD4680BDC046002243088B4274D303098B425FD3030A8B4244D3030B8B4228D3030C8B420DD35A
:40424000FF22090212BA030C8B4202D31212090265D0030B8B4219D300E0090AC30B8B4201D3CB03C01A5241830B8B4201D38B03C01A5241430B8B4201D34B03C01A5241F9
:40428000030B8B4201D30B03C01A5241C30A8B4201D3CB02C01A5241830A8B4201D38B02C01A5241430A8B4201D34B02C01A5241030A8B4201D30B02C01A5241CDD2C309C9
:4042C0008B4201D3CB01C01A524183098B4201D38B01C01A524143098B4201D34B01C01A524103098B4201D30B01C01A5241C3088B4201D3CB00C01A524183088B4201D322
:404300008B00C01A524143088B4201D34B00C01A5241411A00D20146524110467047FFE701B5002000F0F0F802BDC0460029F7D076E7704703460B437FD4002243088B424C
:4043400074D303098B425FD3030A8B4244D3030B8B4228D3030C8B420DD3FF22090212BA030C8B4202D31212090265D0030B8B4219D300E0090AC30B8B4201D3CB03C01A8A
:404380005241830B8B4201D38B03C01A5241430B8B4201D34B03C01A5241030B8B4201D30B03C01A5241C30A8B4201D3CB02C01A5241830A8B4201D38B02C01A5241430A4F
:4043C0008B4201D34B02C01A5241030A8B4201D30B02C01A5241CDD2C3098B4201D3CB01C01A524183098B4201D38B01C01A524143098B4201D34B01C01A524103098B4250
:4044000001D30B01C01A5241C3088B4201D3CB00C01A524183088B4201D38B00C01A524143088B4201D34B00C01A5241411A00D201465241104670475DE0CA0F00D049423E
:40444000031000D34042534000229C4603098B422DD3030A8B4212D3FC22890112BA030A8B420CD3890192118B4208D3890192118B4204D389013AD0921100E08909C3095D
:404480008B4201D3CB01C01A524183098B4201D38B01C01A524143098B4201D34B01C01A524103098B4201D30B01C01A5241C3088B4201D3CB00C01A524183088B4201D360
:4044C0008B00C01A5241D9D243088B4201D34B00C01A5241411A00D20146634652415B10104601D34042002B00D54942704763465B1000D3404201B5002000F005F802BD81
:404500000029F8D016E770477047C0468446101C62468C46191C634600E0C0461FB500F037FF002801D40021C8421FBD10B500F08BFE4042013010BD10B500F029FF002824
:4045400001DB002010BD012010BDC04610B500F01FFF002801DD002010BD012010BDC04610B500F0B1FE002801DC002010BD012010BDC04610B500F0A7FE002801DA0020FD
:4045800010BD012010BDC04670B500220C4B04000D00FFF7EFFF002804D12000290001F04FFD70BD064B00222000290001F0D4F901F046FD80231B069C466044F1E7C04621
:4045C0000000E041F8B556465F464D464446F0B40F00FD0FAA4609037C002E005F00450F490A7F0D2943C5001803BC46400A570F640DDB0F3843D2009A4500D1AAE066460C
:40460000A61B002E00DCFFE06346002B39D10300134300D0D9E06B0709D00F232B40042B05D02B1DAB42AD416D4249191D000B0200D482E0CA4B01349C4200D1FEE00A00AF
:404640005646C84BED081A405007640552020543120B640D002112030B0D1B056405120B1A436308C04CF60714401C43640064083443280021003CBC90469946A246AB46C4
:40468000F8BDB74B9C42C6D080231B041843382E00DDEBE01F2E00DD1EE120239B1B9C4603006746BB40984613004746F3403B436746BA40571EBA4113430200F240EB1A20
:4046C0009D42B6411D008A1A7642911B0B0231D54A02560A002E00D1B4E0300001F060FD0300083B1F2B00DDB5E020222900D21AD1409E400A009D4032439C4200DDB1E0FF
:404700001C1B631C1F2B00DDD5E0202114002800C91A8C40D8408D400443DA40681E854111002543002476E74146314300D134E2310045466B0700D06FE756464807ED0819
:40474000C9080543864B9C4235D00A036405120B640D7FE76346E31A9B46002B00DC8BE06746002F3CD07E4FBC4200D153E780273F0438435B46382B00DCF7E00243501E7C
:4047800082410020D2B253194218AB4289411D00494289180B02CDD5714B01349C4200D13DE101206F4A6B080A4028401843D507054351082FE72B000B4300D1CBE18023D9
:4047C0001B030B431A03120B44E7013E002E6DD1AE1AB5429B41091A5B42C91A350075E70700174300D116E701235B429C46E3445B46002B00D0E0E0AA18AA429B4109186E
:404800005B4259181500C5E7002E75D1661C7605760D012E00DCF3E0AE1AB0464545BF410E1A7F42F61B370200D48FE0551BAA42B641411A76428E1B9A464BE7564600223A
:40484000002507E7280001F0ABFC20300300083B1F2B00DC49E72A002838824000259C4200DC4DE73F49E41A1140D4E60243501E8241D3B2002222E7002B00D0F3E0631C16
:404880009C465B055B0D012B00DC9FE0344B9C4500D1C3E0AA180918AA42804140424118CD075208154349086446B4E62C4B9C4200D0ECE6AFE611001F3CE1400C00202BFD
:4048C00000D17FE04021CB1A9A4015436A1E95410021254300242DE733000700203BDF403B00202E70D04027BE1BB0400243501E824113430022E2E6002C4FD0184CA445F6
:4049000000D1ABE08024240476422143382E00DDDFE01F2E00DD43E12027BC1BA1460C004F46BC40A0462C004746F4403C434F46BD406F1EBD41F1402C43151BAA42924143
:40494000411A5242891A64469A46BFE641464546314300D0BEE6002600240025F2E6C046FF070000FFFF7FFFFFFF0F801F2B59DC2027FF1ABC46070063469F405B46B94610
:404980001700DF40B8464F4643461F4363469A40531E9A415B463A43D840F4E60C002C435CD0F643002E55D1551BAA42A441411A6442091B9A46644688E6964FBC4200D01F
:4049C000D8E628E6002280E700208FE70B002B43002C00D0C2E0002B00D101E10300134300D118E6AB18AB42B6410918764271180A0200D409E1884A1D00114064460AE602
:404A0000002C5BD10E002E4300D08AE00100114300D1C2E0010015009A46FCE56446002100258FE620235B429C46DC4463460700DF405B46BC46202B00D1ACE040235F465D
:404A4000DB1B98400243501E8241634613431A00002098E66F4CA44500D057E70100150064469A46D7E5002C39D10C002C436ED0DB43002B1AD0674CA44568D0382B00DDF7
:404A8000A4E01F2B00DDAEE020240F00E41AA740B9462F00DF40B846A3464F46444627435C46A5406C1EA541D9403D43AD1895429B4109185B42591864466BE60C002C431B
:404AC00015D1010011437BD0010015009A46514CA1E50D43691E8D410021ECB22DE74D4CA44534D0802424045B422143C6E7040014434ED0ED084C072C438025C9082D03C9
:404B0000294208D0C6082E4205D1D208410711430C009A463100620FC900E50011433D4C79E50600164300D175E5AE1AB0464545BF410E1A7F42F61B370200D4F4E5551B0F
:404B4000AA42B641411A7642891B9A4663E50100150064465FE5002200257BE5002B3BD00300134315D0ED084B072B438025C9082D03294207D0C4082C4204D141070B0055
:404B80002100D2081343C9005A0F1143DD00214C41E5204C3FE5002054E700260025D1E534000F00203CE7403C00202E2BD04027BE1BB1400D43691E8D4100212C43BCE66F
:404BC000802100260903134C0025BBE50D43691E8D410021EDB269E7010015000D4C1AE50100150017E51C000F00203CE7403C00202B0CD04027FB1A99400D43691E8D417E
:404C00000021254352E70021D4E71D0092E50021F3E7C046FF070000FFFF7FFFF0B556464D4644465F46F0B41D000E034C00CB0F87B0070092468146360B640D98466AD01D
:404C40006D4B9C4235D08022430F12041343F6001E43C3009946694B00279C460023644402932B0368001B0BED0F51469B46400D009500D178E0604B98426CD05B46DA00AC
:404C80004B0F802109040B4313439B465346D9005A4B9C46002360444246201A6A40924601901F430F2F00D9B0E05548BF00C0598746374300D088E000239946023308276F
:404CC00000260293CDE74346B34649460093029B009A9246022B00D0BFE1002153460122002689461A40444B002136030C0D2405360B2643434C1B0526401E437600D2072F
:404D0000760816434846310007B03CBC90469946A246AB46F0BD330003434FD0002E00D1BCE1300001F03CFA03000B3B1C2B00DDADE11D220100D31A08393A008F408E4028
:404D4000DA40B9461643304B00279C46002360444442029385E753465A4613432CD1002300219B46023397E70B4320D05B46002B00D19EE1584601F013FA03000B3B1C2B05
:404D800000DD8FE102005946083A91408B461D21CB1A5146D9400B0059460B4351469B469140194B9C4660444042002374E7002300219B4601336FE703236DE700239946F8
:404DC00001330427002602934BE703230C27029347E70122D51A382D00DCB0E153461A4000210023002689467EE700238026994600223603004B77E7FF07000001FCFFFF29
:404E0000C0830100FFFF0F80F30300005E4500D972E100D16DE1019B4D46013B01930023340002935B461E020B0E1E430B020393330C994633041B0C494620000093FFF740
:404E4000EFF9009B370043430600494620009846FFF76CFA2C0C09040C43A04509D9E419731EA74200D95CE1A04500D859E1023EE4194346E41A49462000FFF7D1F90300EE
:404E8000009A80465343494620009B46FFF74EFA2A040904120C0A4393450DD94346D219013B974200D93AE1934500D837E102235B429C46D219E0445B46D21A4346360482
:404EC00033439B460399180C0B0C1D00059309045B46090C0C001B041B0C4443049159436B4368431B190D0CEB189C4203D980246402A44660441C0C09041B04090C201866
:404F00005D18824200D2DEE000D1D7E0161A029B9C465D1BAC459B415B42F61AB74200D106E149463000FFF77BF9009B04004343494630009846FFF7F9F92E0C09040E4363
:404F4000B04509D9F619631EB74200D9F3E0B04500D8F0E0023CF6194346F31A494618000293FFF75DF9009B06004343494602989846FFF7DBF92D0409042D0C0D43A84571
:404F800009D9ED19731EAF4200D9D6E0A84500D8D3E0023EED192404210043463143049E059A3000ED1A0B040C0C1B0C58436643534354439A19030C9B189E4203D98022EA
:404FC0005202944664441A0C00041B04000C14191B18A54250D34DD001231943964A019B94466344002B00DCF3E64A0709D00F220A40042A05D00A1D8A42894149428B44E3
:4050000011005A46D20108D55A468C4B1A4093468022D2009446019B6344894A934200DD5BE65A46C908500708435602514601225B058146360B5B0D0A4055E680231B03D3
:405040001E4211D05A461A420ED15E461E433603360B2A0089467B4B46E6032B00D1E1E0012BBBD11A40BBE61E433603360B4246744B39E6002BB1D07D194A1EAF4252D930
:405080001100A542A8D1039A9A42A5D1A6E703003E00283B9E400023994654E601F080F8203041E603005246283B9A400021934677E6504601F074F820305EE6029B0026EC
:4050C000AB4200D323E7039E0299B44661448846B045B6415B467642F619B218013B0291974213D290424FD800D18EE0161A9B460DE7894500D28EE674084B46F607350002
:405100005B081D434B46DB0702938BE69742EDD10399029CA142E5D93E1A9B46F7E69846CAE61E00A5E6AC423ED874D0110053E70121494252E71C000EE71E002BE71F2D6E
:405140003CDC20230A0058465B1B9840EA4099400243481E81415E461143EE404B0709D00F230B40042B05D00B00191D99429B415B42F61833023CD55346012200211A407C
:40518000002601238946AFE502235B429C46039CE344A446029B63449846A045B6417642F6190293B218B1E603988A1E41008142B6417642F619AD19039161E71F225242B7
:4051C000D31A5A46DA401300202D29D040225846551BA8400143481E814107200B4318400026002809D00F2200261A401900042ABBD10B0070077602360BDB080343994630
:40520000012253461A4000236EE502998D42BBD89B4600267BE603989842C5D3110032E70020D7E780265B4636031E433603360B009A8946034B57E5FF030000FFFFFFFE1D
:40524000FE070000FF070000F0B55F4656464D464446F0B41F035C00DB0F9A46194B0E034D00C90F8046360B6D0D8B4691463F0B640D9D4219D0134B9C421BD00123A542BC
:4052800006D018003CBC90469946A246AB46F0BDBE42F6D1C845F4D1D34510D0002DF0D1304303005A1E9341EBE7310001230143E7D1E0E73A430123002AE2D1DEE700233C
:4052C000DFE7C046FF070000F0B55F46444656464D46F0B41F033C0B2C4F0E034D00A3465C008446360B6D0DC90F9046640DDB0FBD422BD0254FBC422ED0002D0ED1304337
:405300000700814678427841002C17D15F463A4314D14B460020002B0AD006E0002C02D15846024301D099421AD00123484218433CBC90469946A246AB46F0BD0028F2D0D7
:4053400058425841012240421043F1E737000743D0D002204042EBE75F461743CDD0F8E7A542E2DC05DB5E45DFD808D000205E45DED248424841012340421843D8E7C44512
:40538000D3D80020C445F4D3D2E7C046FF070000F0B55F464D4644465646F0B41C03240BA4462F4C0F034D005E00C90F80463F0B6D0D8B469146760DDB0FA54220D0284CB4
:4053C000A64222D0002D12D1384344424441002E20D0002C0DD05C42634101245B421C4320003CBC90469946A246AB46F0BD002E17D05B4519D05B465C4201231C43EFE72A
:40540000390002240143EBD1D9E7614602241143E6D1D7E761460A43DBD100240028DFD0E9E761460A43E4D1E5E7B54203DD01225C421443D4E7B542CDDB6745DBD809D056
:4054400000246745CCD259464C426141012449420C43C5E7C845CED80024C845F3D3BFE7FF070000F0B55F4656464D464446F0B40D0399464E002B0B87B0070092468046F8
:405480009B46760DCC0F002E69D06D4B9E4235D05B468022DD001204430F13432B439B46C3009846674B00279C460023664401934A4615035000D20F53462D0B400D9146F1
:4054C00000D176E05E4A90426CD080225B0F120413435C4AED0094461D4353460022DB00604449463618701C6140029017430F2F00D9AFE05448BF00C759BF465B461F4331
:4055000000D088E000239B469846023308270193CEE74946022A6AD0032A00D109E2012A00D0BBE111400022002300259046CCB200212D030A0D12052D0B1543434A1B0564
:4055400015401D436D00E4076D0825434046290007B03CBC90469946A246AB46F0BD034352D05B46002B00D18AE1584600F018FE03000B3B1C2B00DD7BE11D22D31A3A0065
:4055800001005D46DA4008398D4013008F402B439B46B8462E4B00279C46002360444642019385E752462A432CD100250023022297E752462A4321D0002D00D154E12800E2
:4055C00000F0EEFD03000B3B1C2B00DD46E11D21CB1A51460200D9405346083A954093400D431B4A944660444042002279E7012400220C40124B0025904699E700250023FA
:4056000001226EE703226CE700239B4698460133042701934CE703230C27019348E700238025984600242D03054B81E75D464346019A6FE75D4643462100019A6AE7C04648
:40564000FF07000001FCFFFF00840100FFFF0F80F30300004246120C91461A0C9446424617044A461B041B0C5A43604690464A4642431000039262461C003F0C7A437C43CD
:4056800042440192220C9246019A5244904506D98246802040028046C24450460390100C049048462404240C1204121905922A0C2D042D0C68432C00824648467C435043BA
:4056C0008146200C8046574357444744BA4503D9802040028046C144380C3F04B84648442404240C01900498A044404404905846000C814658460404200C82460700484677
:405700005F434C464343604660436446834650464443380C8446E4186444A34203D980235B029C46E34448463F04230C3F0C2404E419574668436F4384464D465046554365
:405740004243380C814662444A445B44944503D9802040028446654403983F04834604983F0C8446E344C345804140428246100484460198674484466744A344BC46A345C2
:40578000A4419946D44464428742BF41D4458041E144A04699459B417F424042C8440743120CBA18A045A4415F423B0064422343D71843467D19DB0D6D021D435B465A0202
:4057C000059B1A43531E9A415B46DB0D1A4343465B021343EA0107D501225C0813402343EA07029E13436D08574AB218002A4BDD580709D00F201840042805D0181D98424F
:405800009B415B42ED180300E80104D54F4A15408022D200B2184E48824200DDE7E60124DB08680718436D02530580462D0B5B0D0C407DE6802259461203114208D015426F
:4058400006D115432D0398462D0B4C46414B6FE65D4615432D032D0B3E4B69E603005546283B9D400023BCE6504600F099FC2030A8E60300283B9F400023BB46984689E6B3
:4058800000F08EFC203073E60124A61A382E07DD00220C4000230025904649E6029EA3E71F2E20DC20222C001800921BF040944093400443581E83411C43F540630709D006
:4058C0000F232340042B05D023001C1D9C4292415242AD182B021FD5012400220C4001230025904624E61F202C004042821AD440202E1CD04022961BB5402B43581E834145
:405900000720234318400025002809D00F2200251A401C00042AD8D1230068076D022D0B0124DB08034398460C40002300E60025E3E780220124120315432D0398462D0B96
:405940000C40044BF4E5C046FF030000FFFFFFFEFE070000FF070000F0B557464E464546E0B40E001100F20F9246C500420F180337037400400A4E0F7F0A3043CF4E1743BF
:405980005A00640D520DDB0FC900B24200D1E5E001267340A61AB446534500D1AFE0002E00DC0DE1002A3AD103000B4300D0E4E06B0709D00F232B40042B05D02B1DAB42C1
:4059C000AD416D427F191D003B0200D488E0BB4B01349C4200D110E13A00B94B51461A4001235007ED08520264050543120B640D0B400021280012030D0D120B64052D0554
:405A000015436208AF4CDB072C401443640064081C4321001CBC90469946A246F0BDA74B9C42C5D080231B0418436346382B00DDFDE01F2B00DD30E1624620239B1A020070
:405A40009A40664690460A009940F24046464B1E99413243114363460200DA40691A8D429B410D00BA1A5B42D71A3B0235D57A02530A98464346002B00D1C4E0404600F01E
:405A80008FFB0300083B1F2B00DDC5E020222900D21A4746D1409F400A009D403A439C4200DDC0E01C1B631C1F2B00DDE4E0202114002800C91AD8408C408D400443DA40A4
:405AC000681E854117002543002471E7424663461A4300D14CE2674645466B0700D069E7012351467807ED08FA080B40054373498C4238D012036405120B640D79E7002E18
:405B000000DC9AE0002A47D06C4A944200D14FE78022120410436246382A00DC08E10143481E81410022C9B24919D219A942BF410D007F42BF183A0200D442E15F4A01346A
:405B4000944200D14EE101205D4A69083A4028400843D507054357089A4629E706000E4300D017E714E72900114300D1F9E1802109030A431203120B3BE701235B42984641
:405B8000C4446346002B72D1691A8D429B413F1A5B42FF1A0D0068E702000A4300D107E7012252429046C4446246002A00D0E6E06918A942B6413F187642F7190D00BAE7F2
:405BC000002E00D080E0621C5205520D012A00DCF9E06A1A91464D45B6413A1A7642921B9046120200D499E04D1BA9428941C71B49427A1A90469A463CE752460123002587
:405C000013400022F5E6280000F0CAFA20300300083B1F2B00DC39E72A002838824000259C4200DC3EE7264FE41A1740C0E60143481E81410022C9B210E7002E00D0F1E0CD
:405C4000621C94465205520D012A00DCA0E01B4A944500D1C5E06918A94292413F185242D2194908D5070D4357086446A0E6134B9C4200D0D9E69BE611001F3CE1400C00D5
:405C8000202B00D180E04021CB1A9A4015436A1E95410027254300241FE763460200203BDA406346202B71D0402366469B1B98400143481E814111430022CFE6FF0700004A
:405CC000FFFF7FFFFFFF0F80002C48D0CA4CA24200D1A2E07442A1468024240427434C46382C00DDDBE01F2C00DD44E14E462024A41B3E00A640A246B0464C462E00E640DD
:405D0000B4464646644626435446A5406C1EA54134002C434D46EF400D1B28E04A4643464D461A4300D0A5E6002300240025DEE61F2A5ADC66462022921B060096409146E5
:405D4000B04662460E00D640424616434A4691404A1E9141020060463143C240E4E63C002C435AD0F443A146002C52D14D1BA9428941C71B49427F1A14009A4675E69E4A61
:405D8000944200D0C7E613E600227FE700208FE7002C00D0C8E03B002B4300D10FE103000B4300D104E66918A9429B413F185B42DF193B0200D41AE1904B0D001F4064462E
:405DC000F6E59A4689E63A002A43002C5CD1002A75D102000A4300D1CAE007000D009A46E6E564460022002581E662460600203AD6406246B046202A00D1B7E040226646AC
:405E0000921B904001434246481E8141114300228AE6794CA24200D061E707000D0014009A46C5E5002C41D13C002C4378D0F443A146002C20D0704CA24271D04C46382C56
:405E400000DDB2E01F2C00DDBCE02026341BA2463C005646B4404E46A0462C00F440A446444666463443A4465446A54064466E1EB54125434C46E7406D188D4289413F180A
:405E80004942CF19140056E6002A2FD102000A4300D184E007000D009A46574C88E53D436F1EBD41ECB200270D1B60E7524CA24236D0744280263604A1463743BEE7020008
:405EC0000A4300D174E56A1A90464545B6413A1A7642921B9446120200D4F7E54D1BA9428941C71B49427F1A9A4661E502000A433AD0ED087C072C438025FA082D032A422D
:405F000008D0C7082F4205D145072C003A009A46C9080C43670FD200E5001743364C47E507000D00140043E53A002A4343D002000A4319D0ED087C072C438025FA082D038C
:405F40002A4207D0C6082E4204D147073C003200C9080C43D700620FE50017439A46264C26E50022002544E5234C21E5002049E700230025BBE54C463E00203CE6404C460A
:405F8000B446202C31D040244E46A61BB7403D436C1EA54164462C4300270D1BE7E6802200231203144C0025A1E53D436F1EBD410027EDB260E707000D000F4CF8E4070076
:405FC0000D00F5E44E463C00203EF440A0464C46202C0ED040244E46A41BA7403D436F1EBD4144460027254346E70027CFE70D0073E50027F2E7C046FF070000FFFF7FFFFE
:4060000070B50E4E0C031D0349005B00240B490D2D0B5B0DB14204D0084900208B4208D070BD04430120002CFAD1044900208B42F6D115432800451EA841F1E7FF070000D3
:406040000B0330B5134D1A0B4B005B0DC90F0024AB4211DD104CA34210DC8024640322430E4CE41A1F2C0CDD0D48C31ADA4013005C42002900D11C00200030BD094BCC189D
:40608000FAE7E040084CA44663449A4013000343EEE7C046FE0300001D0400003304000013040000FFFFFF7FEDFBFFFF70B5002830D0C317C4185C40C50F200000F070F82F
:4060C000174B184A1B1AD21A1F2A18DD164AD21A9440002224035B05240B5B0D0021100024030A0D1205240B1443104A1B0514401C436400ED0764082C43210070BD210042
:4061000091400A000B21081AC4405B052403240B5B0DE3E70025002300240022DEE7C0461E0400003304000013040000FFFF0F8070B5051E28D000F033F8154B154A1B1AA5
:40614000D21A1F2A16DD2C00134A0025D21A94405A052403240B520D002124030B0D240B1B0523430D4C1205234013435B002800590870BD0B212C00081AC44095402403AC
:406180005A05240B520DE7E700220024E4E7C0461E0400003304000013040000FFFF0F801C2101231B04984201D3000C10391B0A984201D3000A08391B09984201D3000994
:4061C000043902A2105C40187047C04604030202010101010000000000000000014B18687047C046401100200E4B70B500251E000D4CE41AA410A54204D0AB00F3589847D8
:406200000135F8E712F01EF9084B00251E00084CE41AA410A54204D0AB00F35898470135F8E770BD5084010050840100508401005884010030B50024A24208D0035D651CC0
:406240000C5DA34201D0181B02E02C00F4E7002030BD002310B59A4203D0CC5CC4540133F9E710BD03008218934202D019700133FAE77047134A1088810703D08107890F15
:40628000401A001D11791030484381B25088820703D08207920F801A001D800040180A494030098980B2CA0701D0503080B2890706D504495422091F09785143081880B25A
:4062C000704700008E0D0020F411002010B501F065FF10BD10B501F067FF10BD10B501F079FF10BD10B500F05BFA10BD10B50749044609780220002907D1204601F0C2FF4A
:40630000002802D120460AF0C3FD10BD2C0F002070B504460120002C12D02368002B0FD0616800290CD0074D06222889208118462968FFF78EFF696860680978017000202E
:4063400070BD0000F4110020FFB585B0002768460E9D07734F481C460078002802D0082009B0F0BD10990F9801900095029105A807C800F007F90028F2D16946264603ABC6
:4063800084460873002C19D0002115E08A00B75A082F09D990198078002805D0083FB7521878401C187005E0002914D00027B75290198770491CC9B2A942E7D36046002842
:4063C000CED10F98002809D0109901F097FA002804D00120C4E701208446EFE701F0FAFE2D480021416081600599016021888180022D07D3A1798171A17AC171A1890181EA
:40640000218A418100211EE0481C19E082008B00A75AE65ABE46BE4211D26F463E80B4461E190296B678BE7001967646E6521719029EBB78B3706646A652019EBE70401C28
:40644000A842E3D3491CA942DED3134822460C3000906846037B0799069800F01BF90028B8D168460B4C007B60700B480C3001F0E1FE0028AED1084907480C3107F09CFC0B
:406480000028A7D107F0B6FC0028A3D10121217066E70000880D0020E8110020F8B5054636480F460078002802D002242046F8BD002F60D000243249002D16D02A89D00710
:4064C0000DD02868002808D003881B3BE12B04D24088FB2801D81B2801D2012409E0900707D56868002804D1F7E70020088108604860002CDAD122482E8906811F481B218B
:40650000801D01804180042101711C490020891C0870F00705D019480622801D2968FFF798FE1749B00703D56A68144812788270124D0E46AD1D281F0D60486001F0C8FE0B
:40654000284601F0B7FE30890EF050FA30890DF041FC28880DF044FC30890EF0B1FB03461033FFF787FE1F21C018890140183880A91F88809AE7012498E70000880D002060
:40658000F4110020FFB58446384F1C460020BB883F78054602460646002F11D100290ED0029999420BD36146002908D0002C06D00A99002906D02E4B0B99994202D20120B1
:4065C00004B0F0BD002144E0AB001F19BF78002F3BD0E35A002B38D07B43591889B22B0000F04AF8050410161C253100A7782388BC46FF27233BEB37BB4222D26346032B8F
:406600001FD322E0A388002B1FD0302B19D31CE02389002B19D0282B13D316E0A289002A13D01346134F233BBB420AD20DE0268A002A0AD033460F4F233BBB4201D2964247
:4066400003D901200EE0002001E000280AD16D1CEDB2099B9D42B7D31C2463435B1802998B42ACD89642AAD8AAE70000880D002079020000BAFF000030B47446641E257820
:40668000641CAB4200D21D46635D5B00E31830BC18470000FFB583B0002469460C801F4606468C80002806D00598002803D004983043800701D0012466E0002FFBD03449F5
:4066C000049809888842F6D3FDF7BAFCFDF7A0FC00F012FC002855D100F07AFD002851D12C49084601F03EF905042D0C4AD12A480499066081800021C18007810C98007ADD
:40670000C00704D0684601F07EFD040007D10C98007A800703D501A801F07EFD0446BF1DFEB2002C20D13146059800F05DF804001AD10EF0D3FA040016D16A4610889288E3
:4067400008368518144AF1B29088D288AEB29319984207D3401B801A80B201F0F3FB050007D000E0FF25012400F05EFA002D04D008E0F8B200F01CF9F6E700F081FA074988
:406780000120087000F0CAFB204607B0F0BD00008C0D0020D568000000120020940D002010B503480078012801D101F06DFA10BD940D002070B5084B0446DA889E88002005
:4067C0005518B54206D81D68AA182260DA885118D98070BD032070BD00120020014800897047000000120020F0B587B007460D4600208900009006916846FFF7DBFF84466C
:4068000000285DD1304800990160002117E02E4B88001A680629115406D22C4C0419667882185670628805E0C419203CA67A8218567022891B68C018491C4280C9B2A9429B
:40684000E5D300242DE0601CC2B2059025E01E4FA30039689600581840887118039604904E88B04217D938466F46FE80B6464F786E4677710297049F4F800168039F5E181C
:40688000767879184E700168764659184E800068029F18184770521CD2B2AA42D7D30598C4B2AC42CFD36046002809D168460699FFF780FF8446002802D10549009808609F
:4068C000604607B0F0BD0000980D0020788401009C0D00207047000010B5002809D005494A68002A05D0011F08788000105801F0D7FA10BD980D002010B50446FFF76EFF39
:40690000C0B2801DA0420CD307484068002808D0A100405801F036FA002801D00470001D10BD002010BD0000980D0020F8B516460D460446FFF752FFC0B2801DA04203D27A
:406940000020C0430090F8BDB2B2E9B2684601F03FFA0099481C03D0024AA000526811500098F8BD980D0020F8B50746FFF736FF801DC6B20A49002005460C680DE06178BD
:40698000002907D06188B94202D32078FFF7B4FF002804D1241D6D1CEDB2B542EFD3F8BD980D002010B5002801D0FFF795FF10BD70B506460948002504680BE061780029EF
:4069C00005D062882078121D0023FFF7AFFF241D6D1CEDB2B542F1D370BD0000980D0020FFB581B00A9F16000C4620D000F0F2F8054604281BD0002F0CD03846FFF7B4FFE0
:406A000020492A0151184860002810D03A460499FFF71FFC1B4928010E504618778101980570200406D47D20C000444304E0FF2005B0F0BD6404640C00F0BAF807460428F2
:406A400007D000F04FFAA0420BD800F04BFA201A03E0204600F0AAFA0020F06035720020E6E700F03FFA009000F0B6FA00980121001B009000F0ECF802493A0151180098D8
:406A8000C860E6E70C120020F8B5060116483418217A042903D0E068002802D017E00020F8BD00F01FFA054600F096FA00F0A0F804280CD001010C480F18F86800214519DC
:406AC00000F0C6F80020F860284600F06FFA6068054D002801D0FFF765FF042020720020A8516081E060DAE70C120020FEB500266A46304601232549050169180D7A042D7D
:406B000002D0C96800291BD000211154401CC0B20428F0D300246846005D002830D01B48210108184189476805680291002101604160042241810272C160002E02D015E0F1
:406B40001354E3E700F054F804280ED001010F4808180190C6680021304600F079F801980021C160304600F021FA0126002D07D038460299A847002F02D03846FFF712FF59
:406B8000641CE4B2042CC6D3FEBD00000C1200200EB5002005216A460090118150810348694600680EF0FFFE0EBD0000A00D0020074A0020010189180B7A042B02D0C96891
:406BC000002903D0401CC0B20428F3D3704700000C1200200549002002015218127A042A03D0401CC0B20428F6D370470C12002030B50A4B04200A4C00210A011219157A2A
:406C0000042D06D0D268002A03D09A4201D808461346491CC9B20429EFD330BDFFFF00000C1200207047000030B50020074C05460423020111190B72A5504D60401C4D81CB
:406C4000C0B2CD600428F4D330BD00000C12002030B5094C00231A011219157A042D04D0D568002906D02D18D5605B1CDBB2042BF1D330BD2D1AF7E70C120020002070474C
:406C80001CB5002469460C70142001902346054A05480EF08DFE04480068401C00D1FF2420461CBDFD6C0000A00D00203EB5124A0146FF2000230124126800290DD0012941
:406CC00014D0042908D104206946009308814B8110460EF068FE80B23EBD6846009304814381694610460EF059FEF4E768460093048143816946EBE7A00D002070B545897E
:406D00000468416800890300FFF7B6FC08280509091E22282628002005F00AFF1EE0022908D0C8B22A4621460CF0A0FF2046FFF739FE13E002202A4621460CF097FF294682
:406D4000204600F00DF809E000200EF02BFB05E02046FFF7CBFE01E0FDF7F2F9002070BD014B0022DB681847A40D002070B5448905680089022803D0032809D0FF2070BD5E
:406D80002246094C0023A46829460120A04708E0FFF7A4FA241DA2B200232946022006F0BEFE002070BD0000A40D002070470000024800214160018041807047A40D00204E
:406DC00070B50C46002186B016460391012802D0022859D116E003A9012006F0F5FE01281BD1039D324621462846FFF732FA0095287801900220694608814E816846FFF723
:406E0000B5FF41E0214D002B686809D0049004A9022006F0D9FE01281DD0022006B070BD002812D0298840182146FFF712FA28880024801980B228806988091D884206D175
:406E40002C801348FFF792FF03E00320E6E788421AD96C6018E004986860E278A378110219430B4A698000231060E3565360032313815181A1788170E178C1706178417081
:406E800021780170042028800020C7E7A40D00204C1200203EB515460C46022803D004280CD000203EBD0091019002206946088107484A8100680EF076FD07E00CF0D6FEF9
:406EC000044B0022DB6829462046984701203EBDA00D0020A40D0020014AD16090607047A40D0020034801688068081A0A214843000970475812002010B5FDF791F8482212
:406F000004490548FFF7A5F903490120C870002010BD0000948401005C16002010B5FDF76FF810BD70B5134C2368002B08D0207B1149C20705D04008400020738868A08029
:406F400070BD88680B4AA18880B29268814203D90A4D691A091802E0814202D2411A5118A160A080A0689842EAD30EF039FD00F013F870BD58120020C0102E40FFFF000091
:406F800010B508461946FFF7A7FF10BD704710B5FFF780FF10BD000003480021016041608160C1607047000058120020024610B5FF20002A0CD0FFF7EFFF064C0321207B60
:406FC0000843207310010A21FDF7B0F92060002010BD00005812002000B504480A21806848430209FFF7D8FF104600BD581200200248007B8007C00F704700005812002073
:4070000010B54B490868002802DA4A4B01221A70022290430860484800694549C00B4031096A0246C907C90F0A4259D0012000F0EDFA3F480E216C30FCF7ECFE3E48202159
:407040008430FCF7E7FE3C4814219C30FCF7E2FE3948FF21C131A430FCF7DCFE3648FF212F31B030FCF7D6FE33483449BC30FCF7D1FE31483249AC30FCF7CCFE30492E4831
:40708000491CB430FCF7C6FE2B482E49B830FCF7C1FE29482C49CC30FCF7BCFE26482B490830FCF7B7FE24482949A830FCF7B2FE214828498830FCF7ADFE1F4826498C30E0
:4070C000FCF7A8FE1C481921C9029030FCF7A2FEFCF7B0FEFCF7C0FFC0B2022812D01FE000290BD0002101420AD0114801216030FCF790FE0120FCF777FF97E70121F2E79A
:40710000FF2010BD15491648FCF784FE14481549001DFCF77FFE124800210830FCF77AFE54200449C043891C0870002010BD000000F02E40B40D002000002E40320300001D
:407140002F3F00003102000010520000EC160000FA12000031D000003AE300009956000080012E40F80F000070B50646581C80B245086D00002408E0304600F0C1F810559A
:40718000000A1119A41C4870A4B2AC42F4D3D80705D0D0182038D15CC47FD454C17770BD30B50A4C002100195B1E07E0541864782502545C2C430480891C89B29942F5DBB5
:4071C000994201D1515C018030BD000000102E4010B5FF2000F01AFA0F49FF2048700E481021801D41800121417001700A490020C91C4870FFF704FF04000AD100F02EF90A
:4072000007210648FCF7F6FD044807211830FCF7F1FD204610BD0000B40D0020CC112E4070B5002405465B1E0AE0284600F068F8010A161971702D1D1055A41CADB2A4B202
