:400000000040002011000000191200001912000080B500AF01F004F980B584B000AF021CFB1D1A70204A3B1C0B3312781A701F4A3B1C0A3312781A700423013BFB6018E075
:400040001B4B1868391C0B31FA68131C5B009B18C3185B780B70164B1868391C0A31FA68131C5B009B18C3189B780B70FB68013BFB60FB68002B0ADB0D4B1968FA68131CF1
:400080005B009B185B5CFA1D12789A42D8D9094B3A1C0B3212781A60074B3A1C0A3212781A60BD4604B080BDCCF1FF0FCDF1FF0FFC0000201CFF0B4020FF0B4080B500AF1F
:4000C000244B12221A600C20FFF7A6FF224B0C221A60052002F034F8204B214A1278D2B21A60052002F000FA02F0E4F8FA235B00181C02F0D5F9012002F0ECF8194B1A4A5C
:400100001A601A4B8022D2051A60194B194A1A60194B194A126808218A431A60FA23DB00181C02F081F8154B181C02F0DDF9144BC022D2001A60134B134A1A60134B802246
:4001400012061A60124B40221A60024B00221A60BD4680BD300010402CFF0B4028FF0B40D9F1FF0F04010B40060000800C020B407C002E402D3E00006CF02E40DC0500001C
:40018000000301400000014040FF008008010B400401014080B582B000AF72B6414B00221A60FB1D00221A7023E0FB1D1A78131C5B009B185B003C4A9B183B603B681A78E9
:4001C000597809020A43997809040A43DB781B0613431A1C3B6819795B791B020B439BB2101C191C01F0A0F8FB1D1A78FB1D01321A70FB1D1B78012BD7D92C4A2C4B101CA1
:40020000191C01F0A1F82B4BEE2212061A602A4BEE221A60294BD82212041A60284B80221A60284B8022D2031A60274B8022D2011A60264B03221A60254B264A1A60264BBB
:40024000992212041A60254B992212041A60244B802212061A60234B992212041A60224B214A1278D2B202210A43D2B21A701F4B1E4A1278D2B20C218A43D2B204210A43E8
:40028000D2B21A70184B184A1278D2B216210A43D2B21A70FFF712FF01F096F8BD4602B080BDC0466CF02E400453010010530100145301000000024000030240080004408C
:4002C00000020440080204400C02044000030440080304402400000200500F4020500F4024500F4030500F4000700F4001700F4010B5064C2378002B07D1054B002B02D0EB
:40030000044800E000BF0123237010BD7004002000000000D452010008B5084B002B03D00748084900E000BF07480368002B03D0064B002B00D0984708BDC0460000000098
:40034000D452010074040020C80000200000000080B500AF00F036F805F05AFD00F0F2F8154B1B78002B12D000F038FF00F0BAFE124B1B78013BDAB2104B1A700F4B1B7855
:40038000002B04D10D4B20221A7000F03BF800F003F90B4B1B78002B0CD0094B00221A70002001F087F8002001F084FD062001F0A7FDD1E7D0E7C0469D040020CD0000201A
:4003C0009C04002080B500AF62B60C4B181C01F029F801F027FB0A4B181C01F0CFFD002001F06EFE062001F091FE012001F02AFE062001F04DFEBD4680BDC046310E000007
:400400002506000080B500AF424B1B78002B07D1414B1B78002B03D1404B1B78002B01D000F046FA3B4B1B78002B22D03C4B1A683C4B1B689A421CD0394B1B68DAB23A4BF9
:400440001A70374B1B681B12DAB2374B5A70344B1B681B14DAB2344B9A70314B1B681B16DAB2314BDA702E4B1A682E4B1A6000F0D9FD294B1B78002B22D02C4B1A682C4BD8
:400480001B689A421CD0294B1B68DAB2294B1A70264B1B681B12DAB2264B5A70234B1B681B14DAB2234B9A70204B1B681B16DAB2204BDA701D4B1A681D4B1A6000F0D2FD79
:4004C000164B1B78002B22D01B4B1A681B4B1B689A421CD0184B1B68DAB2194B1A70164B1B681B12DAB2164B5A70134B1B681B14DAB2134B9A70104B1B681B16DAB2104B30
:40050000DA700D4B1A680D4B1A6000F0CBFDBD4680BDC0469F040020A0040020A104002004260020DC2500205826002040260020E02500205426002018260020E4250020A6
:400540006026002080B500AF114B1B78032B16D1104B1B78013BDAB20E4B1A700D4B1B78002B12D10B4B32221A7001F0E1FC031C5A425341DBB2181C01F09CFC05E00120BA
:4005800001F098FC002001F0BBFCBD4680BDC04674260020CE00002080B500AF01F068FC1D4B1B78002B05D0002001F0AFFD002001F06EFD032005F023FC031C1A1C174BA5
:4005C0001A7072B606F0D5FE031C1A1C144B1A70124B1B78032B0AD1114B1B78042B03D00F4B1B78062B08D101F0ACFF05E00C4B1B78022B01D001F08BFF62B6064B1B7881
:40060000002B05D0062001F081FD062001F040FD01F044FCBD4680BDCC0000208C0400208D04002080B500AF01F002FD01F08EFCBD4680BD80B500AF454B7720191C012221
:40064000002301F09DFAC04601F0BEFB021C02231340F9D001F0DAFB3E4B7720191C1622002301F01BFBC04601F0AEFB021C01231340F9D001F0CAFB374B01221A70354BE0
:400680001B781B029AB2334B5B7813439AB2334B1A80304B9B781B029AB22E4BDB7813439AB22F4B1A802B4B1B791B029AB2294B5B7913439AB22B4B1A80264B9B791B02AB
:4006C0009AB2244BDB7913439BB29AB2264B1A80204B1B7A1B029AB21E4B5B7A13439BB29AB2224B1A801B4B9B7A1B029AB2194BDB7A13439BB29AB21D4B1A80154B1B7BD0
:400700001B029AB2134B5B7B13439AB2194B1A80104B9B7B1B029AB20E4BDB7B13439AB2154B1A800B4B9B7C1B029AB2094BDB7C13439AB2114B1A80064B1B7D1B029AB2EC
:40074000044B5B7D13439AB20D4B1A80BD4680BDD8000020E82500209004002000260020282600202A2600202026002014260020022600203C2600202C26002048260020F7
:40078000FE25002080B500AF1E4B7720191C0222002301F0F5F9C04601F016FB021C02231340F9D001F032FB052001F079FE164B7720191C0122002301F0E2F9C04601F06F
:4007C00003FB021C02231340F9D001F01FFB0F4B7720191C0222002301F060FAC04601F0F3FA021C01231340F9D001F00FFB074B1B781A02054B5B781A43054B1A60BD464E
:4008000080BDC046DC000020E0000020940400200C26002080B500AF204B7720191C0222002301F0ADF9C04601F0CEFA021C02231340F9D001F0EAFA1A2001F031FE184BC6
:400840007720191C0122002301F09AF9C04601F0BBFA021C02231340F9D001F0D7FA114B7720191C0322002301F018FAC04601F0ABFA021C01231340F9D001F0C7FA094BA2
:400880001B781A04074B5B781B021A43054B9B7813435A11044B1A60BD4680BDE4000020E8000020980400204426002000000000F8B500AFC84B1B78002B01D1FFF7BAFEBC
:4008C000FFF760FFFFF7A6FFC44B1A68C44B1B88D31AC44A12885343181C05F0B5F9031C0C1C181C211CAF4BAD4A03F04BFF031C0C1C181C211C05F073F9021CBA4B1A6027
:40090000BA4B1B881BB2181C05F09EF9031C0C1C181C211CA44AA54B04F09EFB031C0C1C1D1C261CB24B1B881AB2AF4B1B68D318181C05F089F9031C0C1C281C311C1A1C10
:40094000231C03F01FFF031C0C1C181C211C05F047F9021CA74B1A60A34B1A68A54B1B68D218A54B1A60A44B1B680833181C05F06BF9031C0C1C181C211C8D4A8D4B03F0E5
:4009800001FF031C0C1C181C211C05F029F9021C9A4B1A60984B1B6899495A18994B1A60994B1B881BB2181C05F04EF9051C0E1C944B1A68934B1B685343181C05F044F906
:4009C000031C0C1C181C211C7B4A7C4B03F0DAFE031C0C1C281C311C1A1C231C04F03CFB031C0C1C181C211C6F4A704B03F0CAFE031C0C1C181C211C05F0F2F8021C7A4B0F
:400A00001A60824B1B881AB27E4B1B685343181C05F01AF9031C0C1C181C211C624A634B03F0B0FE031C0C1C181C211C05F0D8F8021C704B1A606C4B1A686E4B1B68D21800
:400A4000734B1A60734B1B881BB29A00704B1B68D318DB000233002B00DA03339B101A1C6D4B1A606D4B1B881AB2664B1B685343181C05F0E9F8031C0C1C181C211C504AA2
:400A8000504B03F07FFE031C0C1C181C211C05F0A7F8021C544B1A60614B1B881BB2181C05F0D2F8051C0E1C564B1A68554B1B685343181C05F0C8F8031C0C1C181C211CD1
:400AC0003D4A3E4B03F05EFE031C0C1C281C311C1A1C231C04F0C0FA031C0C1C181C211C394A3A4B03F04EFE031C0C1C181C211C05F076F8021C3F4B1A603B4B1A683D4BD0
:400B00001B68D3180233181C05F09EF8031C0C1C181C211C2E4A2F4B03F034FE031C0C1C181C211C05F05CF8021C394B1A603D4B1B881A1C364B1B68802109025B1853434D
:400B4000181C05F0BFF8031C0C1C181C211C154B134A03F017FE031C0C1C181C211C03F0CFFA021C304B1A60304B1B681A1C2A4B1B68D31A2E4A5A432E4B1A602D4B1B6875
:400B8000002B5BDB2B4B1B685A00274B1B68101C191C03F0C5F9031C1A1C274B1A605AE0000000000000E040000000000000A0400000000000003040000000000000B0409F
:400BC000000000000000C040000000000000F0400000000000001040900400200C26002002260020142600202426002048260020FE250020102600201C2600200426002090
:400C000060F0FFFF082600202C2600202826002030260020002600204C2600202A2600203C2600202026002034260020442600206A1800003826002040260020724B1A68C9
:400C4000724B1B68101C191C03F06AF9031C5B001A1C6F4B1A606E4B1B68181C04F0F4FF031C0C1C181C211C5C4B5B4A03F08AFD031C0C1C1D1C261C654B1B68181C04F0A7
:400C8000E3FF031C0C1C181C211C544B524A03F079FD031C0C1C281C311C1A1C231C04F0DBF9031C0C1C181C211C04F099FF021C584B1A60574B1B68574A5343181C04F0DE
:400CC000C3FF031C0C1C181C211C454A454B03F059FD031C0C1C181C211C04F081FF021C4C4B1A604A4B1B684C4A5343181C04F0ABFF031C0C1C181C211C394A394B03F0EF
:400D000041FD031C0C1C181C211C04F069FF021C434B1A603E4B1B68181C04F095FF051C0E1C3C4B1A683E4B1B68D3183D4A9B18181C04F089FF031C0C1C181C211C2A4A12
:400D40002A4B03F01FFD031C0C1C281C311C1A1C231C03F0F5F9031C0C1C181C211C04F03FFF021C2A4B1A60294B1B68181C04F06BFF0A1C011C2C4B5C681B68081C111CEF
:400D80001A1C231C03F0FEFC031C0C1C191C221C174B184C081C111C1A1C231C01F060FE031C0C1C144815491A1C231C04F0E4FB031C0C1C181C211C114A124B04F04CF94A
:400DC000031C0C1C181C211C04F00AFF021C174B1A60BD46F8BDC0460000000000007040000000000000F04000000000000030406C45D9CC955BC83F000000000000F03FBA
:400E00000000000040A5E54038260020342600204026002024260020DE0B000043E3FFFF10260020CF0E0000D00000201826002080B582B000AF786039607B68282B26D07F
:400E400006D8052B15D0262B18D0012B0DD0BDE0422B31D002D8412B1DD0B7E04C2B00D17EE0712B00D1ADE0B0E05A4B01221A70ACE03B681A78584B1A70A7E0574B1B783C
:400E8000042B03D1534B01221A709FE09EE0514B01221A709AE0524A3B68111C1A1C0223081C111C1A1C04F09AFF4E4B01221A704D4B00221A7089E04A4B00221A704B4B7F
:400EC00000221A704A4B00221A704A4B00221A70494B01221A70494B01221A70484B01221A70484B00221A70464B1A78454B5A70444B5A78434B9A70424B9A78414BDA70D8
:400F0000414B00221A70404B1A783F4B5A703E4B5A783D4B9A703C4B9A783B4BDA703B4B00221A70394B1A78384B5A70374B5A78364B9A70354B9A78344BDA70344B002242
:400F40001A60344B00221A60334B00221A60264B01221A70314B01221A7000F0C3F835E02F4B3A681A602E4B1B689B890F2B08D12B4B1B685B681A781C4B1A701E4B012227
:400F80001A70274B1B689B89132B08D1244B1B685B681A78164B1A70184B01221A70204B1B689B89172B08D11D4B1B685B681A78104B1A70124B01221A70094B18680FF006
:400FC000B1F903E0154B00221A70C046BD4602B080BDC0469C0400209E04002074260020A80400209D040020CC0000209F040020A0040020A1040020A2040020A3040020CC
:40100000A4040020582600205426002060260020DC250020E0250020E4250020F0000020AC04002080B500AF0A4B1B78002B0ED1094B0E221A81084B084A1A60064B042230
:401040009A80074B044A1868111C0FF021F9BD4680BDC0469E040020B004002058260020A804002080B500AF0A4B1B78002B0ED1094B12221A81084B084A1A60064B04221B
:401080009A80074B044A1868111C0FF001F9BD4680BDC0469E040020BC04002054260020A804002080B500AF0A4B1B78002B0ED1094B16221A81084B084A1A60064B0422EF
:4010C0009A80074B044A1868111C0FF0E1F8BD4680BDC0469E040020C804002060260020A804002080B500AF2F4B1B78002B1AD02D4B00221A702D4B1A782D4B1A702C4B9E
:4011000000225A702B4B0F221A812A4B284A1A60284B02229A80274A274B101C00211A1C00230FF03DFD254B1B78002B1AD0234B00221A70224B1A78224B1A70214B0022F7
:401140005A70214B13221A811F4B1E4A1A601E4B02229A801C4A184B101C00211A1C00230FF01EFD194B1B78002B1AD0174B00221A70174B1A78174B1A70164B00225A70A6
:40118000154B17221A81144B124A1A60124B02229A80114A084B101C00211A1C00230FF0FFFCBD4680BDC046A20400209F04002064260020D4040020A8040020A3040020D9
:4011C000A004002050260020E0040020A4040020A10400205C260020EC04002080B500AF094B1B78002B0DD0084B1B78002B09D0064B00221A70064B1A78064B101C191C03
:401200000CF0FCF9BD4680BD9D040020F0000020A8040020F400002080B500AFFEE7C04680B586B000AF224B7B61224B3B61204B7B6135E03B691B68FB603B695B68BB6031
:401240003B699B683B6000237B600CE0FB681A68BB681A60BB680433BB60FB680433FB607B6804337B607A683B689A42EED13B69DB683B6000237B6008E0BB6800221A601A
:40128000BB680433BB607B6804337B607A683B689A42F2D13B6910333B617B69013B7B617B69002BC6D104F065FDFFF751F8FEE7010000004059010080B582B000AF154BF0
:4012C000144A126801218A431A6000237B600FE07B68032B04D8104B7A689200D35800E00E4B0F4A796889008B507B6801337B607B682F2BECD9FEF74DFF0A4B00221A60DC
:40130000044B044A126801210A431A60BD4602B080BDC04600001040000000001912000000000020C000002080B582B000AF786039607A683B68101C00211A1C04F058FD62
:40134000BD4602B080BDC04680B586B000AF7860396000233B6100237B612EE07B699B007A68D3181B68BB603B1C0F33BA681A70BB68FF229343BB6017E03B695B003A6822
:40138000D3181B781A1CBB68D3183A69520039688A1852781A703B6901333B613B1C0F331A783B1C0F33013A1A703B1C0F331B78002BE2D17B6901337B617B69002BCDD038
:4013C000BD4606B080BDC04680B500AF054B03221A60054B03221A60044B00221A60BD4680BDC0463000304030003140000E3F4080B500AF064B00221A70064B00221A7052
:40140000054B00221A7000F009F8BD4680BDC0467C2600207A2600207B26002080B500AFBD4680BD90B585B000AF78603B1C0E3301221A80194B1B78002B04D1FFF7D8FFF8
:40144000164B01221A707B68002B1FD0144B7A681A603C1C0E34134A134B101C191C172204F0ECFC031C23803B1C0E331B88002B0CD10E4B01221A703C1C0E340C4B181CAB
:40148000182116220FF074FB031C23803B1C0E331B88181CBD4605B090BDC046F8040020682600207117000000050020742600206854010090B585B000AF021CFB1D1A703A
:4014C000294B1B78042B42D1284B1B78DBB21A1C042313403BD1FB1D1B78002B0BD1244B1E221A82224B5B6820221A80204B5B6830225A8010E0FB1D1B78012B0CD11C4BE6
:4015000096221A821A4B5B68C822D2001A80184B5B688022D2015A80164BFA1D12781A703C1C0E34124B181C0DF07CFD031C23803B1C0E331B88002B08D10C4B1B78DBB2BF
:4015400004221343DAB2094B1A7005E004E03B1C0E33832252001A803B1C0E331B88181CBD4605B090BDC046742600207C2600205C0100207B26002080B582B000AF786071
:401580007B681B781A1C7B6801331B781B029BB213439BB2181CBD4602B080BD90B585B000AF78603B1C0F3300221A707B689A890B239A4237D17B681A1D7B683C1C0F34AC
:4015C000101C00211A1C40230FF0EAFA031C23703B1C0F331B78002B1DD17B685B68181CFFF7CAFF031C1A1C022313409BB2002B08D0104B1B68822251007A68081C111C6F
:40160000984708E00B4B1B680622111CFF317A68081C111C9847084B1B78DBB201229343DAB2054B1A703B1C0F331B78181CBD4605B090BD682600207C26002090B585B052
:4016400000AF78603C1C0F347B68181CFFF7A6FF031C2370144B1B78DBB21A1C012313401FD13B1C0F331B78002B16D03B1C083312229A707B689A893B1C08331A803B1C32
:4016800008333A1C0F321278DA707B683A1C08321868111C0EF0DEFD03E07B6818680EF041FEBD4605B090BD7C26002080B582B000AF7860BD4602B080BDC04680B500AF77
:4016C000034B00225A70024B00221A70BD4680BD7826002080B582B000AF7860BD4602B080BDC04680B500AFBD4680BD80B584B000AF78603B1C0E3300221A707B689B7984
:40170000002B1CD13B1C0F3300221A7012E03B1C0F331B787A68D35C002B04D03B1C0E3301221A700BE03B1C0F331A783B1C0F3301321A703B1C0F331B78052BE7D93B1CFA
:401740000E331B78181CBD4604B080BD80B582B000AF021CBB1D1A80BD4602B080BDC04680B582B000AF7860BD4602B080BDC04680B584B000AF021C3960FB1D1A70904B9D
:401780001B78DBB201221343DAB28D4B1A70FB1D1B78712B00D9F7E09A008A4BD3181B689F463B1C0C3308221A703B1C0C3300225A703B1C0C33181C05F00AFE3B1C0C33C0
:4017C00001225A703B1C0C33181C05F001FE7E4B1B68181CFFF78AFF031C002B05D07A4B1B68181C04F018FB0FE0784B1A78784B1A70784B1A78764B5A70774B1A78744B19
:401800009A70734B181C04F007FB03200DF0CCFA724B04221A70B8E03B68181CFFF75AFFB3E03B681A786E4B1A70AEE0644B1B78DBB21A1C202313400ED16A4B1B78102B0F
:4018400002D1684B0522DA70674B1A78654B101C191C0DF0B1FB98E097E03B68181CFFF77FFF92E03B68181CFFF77AFF5B4B02221A708AE0594B04221A7086E0574B1B78D4
:40188000022B34D04E4B1B78DBB21A1C012313402DD04B4B1B78DBB21A1C042313400BD04E4B03221A70464B1B78DBB204229343DAB2434B1A701AE0414B1B78DBB21A1CDE
:4018C000082313400BD0454B04221A703C4B1B78DBB208229343DAB2394B1A7007E03F4B1B78032B03D13D4B04221A704DE04CE03B681B88181CFFF729FF46E03A4A3B6892
:40190000111C1A1C0223081C111C1A1C04F067FA354B1B78DA00354BD318354A111C1A1C0823081C111C1A1C04F059FAFFF7DAFE2BE0FFF7C3FE28E03B685B88162B05D8D4
:401940003B1C0E333A6852881A8003E03B1C0E3317221A803B683A1C0E321288198800230904090C1B0C1B040B43181C111C0EF07DFC0AE03B68181CFFF760FE05E03B68A9
:40198000181CFFF793FE00E0C0460D4B1B78DBB21A1C112313400FD0094B1B78DBB201229343DAB2064B1A70124B1B68FA1D11783A68081C111C9847BD4604B080BDC04652
:4019C0007C26002080560100080100207CF1FF0F000100207DF1FF0F7BF1FF0F742600207A260020CC01002078260020005401006C2600206826002080B500AF00F046F8A7
:401A0000BD4680BD80B500AF054B054A1268802109060A431A6000F02BF8BD4680BDC0460000244080B500AF064B1B78002B04D1FFF7E2FF034B01221A70FFF7E3FFBD46C0
:401A400080BDC0469811002080B500AF092000F0F1FC064B054A1268520052081A60092000F0FEFC00F00CF8BD4680BD0000244080B500AF092000F0C7FCBD4680BDC0467F
:401A800080B500AF00F06EF8BD4680BD80B500AF204B00221A60204B204A1A60204B214A1A60214B00221A60204B00221A60204B1C4A1A601F4B00221A60092000F0BAFCF3
:401AC0000920032100F04CFC1B4B0920191C00F021FC1A4B00221A60194B00221A60194B00221A60184B1422FF321A60174B00221A60174B00221A60164B10221A70164BD1
:401B000000221A80154B00221A60154B00221A60BD4680BD000024406000244088080080000324400701008004032440100324400002244004022440B1250000C80E2440C8
:401B4000880E2440480F2440080F2440C80F2440880F24407D2600208C2600209C2600208426002080B500AF034B00221A60034B10221A70BD4680BD880F24407D260020E8
:401B800080B586B000AFF860B9607A603B6004237B61BB68002B20D0324B1B78DBB2102B0CD1092000F046FC2F4B1A680123134001D0082300E000237B610EE0294B1B7891
:401BC000DBB2602B09D1294B1B889BB2082293439AB2264B1A8000237B617B69002B38D1204B28221A70224B00221A60214B00221A60214B7A681A60204BBA681A603B685F
:401C0000DAB21F4B1A70FB685A00FF231340FB60164B1B889BB2022293439AB2134B1A80184B194A1A60194B40221A603A680123134005D000F002F9154BFA681A6005E08E
:401C4000134BFA681A60134B02221A60124B40221A60092000F0D8FB7B69181CBD4606B080BDC0467D260020640024408C260020802600208426002088260020A026002054
:401C800094260020000F244017030000800F24404002244068002440880F244080B586B000AFF860B9607A603B6004237B61BB68002B20D0374B1B78DBB2102B0CD1092039
:401CC00000F0B8FB344B1A680123134001D0082300E000237B610EE02E4B1B78DBB2602B09D12E4B1B889BB2082293439AB22B4B1A8000237B617B69002B43D1254B292260
:401D00001A70274B00221A60264B7A681A60264BBA681A603B68DAB2244B1A70FB685A00FF23134001221343FB601C4B1B889BB2012293439AB2194B1A801D4B1D4A1A6020
:401D40003A680123134005D000F078F81A4BFA681A6005E0184BFA681A60184B02221A60104B1B68072B03D8154B04221A6009E0144B144A1268802149000A431A60104B98
:401D800008221A60092000F03FFB7B69181CBD4606B080BD7D260020640024408C2600209C260020982600209026002094260020000F244017030000400224406800244052
:401DC000C80F24406000244080B582B000AF092000F030FB0B4B1B889BB27B600A4B1B78DAB220231340DBB2002B03D07B68042213437B60092000F007FB7B68181CBD4665
:401E000002B080BD8C2600207D26002080B582B000AF092000F00EFB074B1B889BB27B60054B00221A80092000F0EEFA7B68181CBD4602B080BDC0468C26002080B582B074
:401E400000AF01237B60084B1A682023134001D0082300E000237A6813437B60034B7A681A60BD4602B080BD640024406800244080B500AF074B1B68DB0FDBB21A1C064B50
:401E80001A70054B1B78002B01D0FFF7DDFDBD4680BDC04600002440A011002080B500AF034B1B78002B01D0FFF7ACFDBD4680BDA011002080B584B000AF021CFB1D1A7025
:401EC0000E4B1B68DAB23B1C0F3340218A431A70FB1D1B789B01DAB240231340D9B23B1C0F333A1C0F3212780A431A70034B3A1C0F3212781A60BD4604B080BD0002044061
:401F000080B582B000AF021CFB1D1A70064B064A1168064A1140FA1D127892040A431A60BD4602B080BDC04608020440FFFFE3FF80B500AF044B1A68402313409B09DBB250
:401F4000181CBD4680BDC0460402044080B582B000AF094B1B68DAB2FB1D7F218A431A70054BFA1D12781A60FB1D1B78DB09DBB2181CBD4602B080BD1002044080B582B0AB
:401F800000AF786000F04AF87B68181C00F008F8032000F011F800F037F8BD4602B080BD80B582B000AF7860024B7A689A64BD4602B080BD0000002090B585B000AF021CC0
:401FC000FB1D1A701623FB603C1C0B3400F0C1F8031C23700A4B0A4A11680A4A1140FA1D1078FA68041C9440221C0A431A603B1C0B331B78181C00F0B0F8BD4605B090BDFF
:4020000000E400E0FFFF3FFF80B500AF024B04221A60BD4680BDC04600E100E080B500AF024B04221A60BD4680BDC04680E100E080B500AF024B04221A60BD4680BDC04659
:4020400080E200E080B584B000AF021CFB1D1A700E4B1B68DAB23B1C0F3310218A431A70FB1D1B781B01DAB210231340D9B23B1C0F333A1C0F3212780A431A70034B3A1C24
:402080000F3212781A60BD4604B080BD0003044080B582B000AF021CFB1D1A70064B064A1168064A1140FA1D127812030A431A60BD4602B080BDC04608030440FF8FFFFFBF
:4020C00080B584B000AF021CFB1D1A700E4B1B68DAB23B1C0F3304218A431A70FB1D1B789B00DAB204231340D9B23B1C0F333A1C0F3212780A431A70034B3A1C0F321278B4
:402100001A60BD4604B080BD0003044080B582B000AF021CFB1D1A70064B064A1168064A1140FA1D127892010A431A60BD4602B080BDC046080304403FFEFFFF00000000DC
:402140000230800803D00138FDD1C046C046C0467047EFF3108072B6704780F31088704780B500AF0B4B0B4A126801218A431A60094B094A126830218A4310210A431A6046
:40218000054B054A126807218A4301210A431A60BD4680BD00F02E4000FF2E4080B500AF0E4B0E4A126802218A431A600C4B0C4A126807218A4302210A431A60084B084AF9
:4021C000126830218A4320210A431A60034B034A126801210A431A60BD4680BD00F02E4000FF2E4090B585B000AF78603C1C0F34FFF7AFFF031C2370094B796807220A409C
:40220000D104074A1068074A02400A431A603B1C0F331B78181CFFF7A0FFBD4605B090BD00010B40FFFFC7FF80B584B000AF78600023FB60154B154A126801210A431A600C
:40224000134B144A1A60144B134A1268802109020A431A607B68002B13D01023FB600DE0012000F041F900F019F8031C002B02D00023FB6005E07B68013B7B607B68002B40
:40228000EED1FB68181CBD4604B080BD60F02E4078002E400220000010002E4080B500AF034B1A6801231340181CBD4680BDC0460C002E4080B500AFFFF752FF044B044AA9
:4022C0001268802109060A431A60BD4680BDC04600F02E4080B584B000AF78600C4B1A6801231340FB607B68002B02D0012B03D005E0FFF735FF06E0FFF750FF03E0002092
:4023000000F0C4F8C046FB68181CBD4604B080BD00F02E4080B584B000AF021C3960FB1D1A7080239B05FB60FB1D1B781F2B02D9002000F0ABF8FB1D1B7810339B00FA6885
:40234000D3181B68BB60FB1D1B7810339B00FA68D3183A681A60BB68181CBD4604B080BD90B587B000AF0A1CFB1D011C1970BB1D1A70BB1D1B78032B02D9002000F086F824
:40238000FB1D1B781F2B02D9002000F07FF8FB1D1A7803231340DB0006337B613C1C1334FFF7D7FE031C2370FB1D1B789B08DBB29B0014495B181B68FB607B690322111C3D
:4023C00099400B1CDA43FB681340FB60BB1D1A787B69111C99400B1CFA681343FB60FB1D1B789B08DBB29B00064A9B18FA681A603B1C13331B78181CFFF7AFFEBD4607B00B
:4024000090BDC04600E400E080B582B000AF021CFB1D1A70064BFA1D11781F220A400121081C9040021C1A60BD4602B080BDC04600E100E080B582B000AF021CFB1D1A70F6
:40244000064BFA1D11781F220A400121081C9040021C1A60BD4602B080BDC04680E100E080B582B000AF021CFB1D1A70064BFA1D11781F220A400121081C9040021C1A60F9
:40248000BD4602B080BDC04680E200E080B582B000AF021CFB1D1A7001BEBD4602B080BD80B582B000AF786008E00C4B1B68181CFFF746FE7B680A4A9B187B607A688023F3
:4024C0001B029A42F1D8074B1B687A685343181CFFF736FEBD4602B080BDC046DC0100200080FFFFD401002080B582B000AF021CBB1D1A80BB1D1B88044A12785343181C44
:40250000FFF71EFEBD4602B080BDC046D801002090B583B000AFFC1DFFF71BFE031C2370074B074A126804218A431A6030BFFB1D1B78181CFFF711FEBD4603B090BDC04632
:4025400010ED00E090B583B000AFFC1DFFF701FE031C2370114B114A1268520052081A600F4B104A128892B21A600F4B0E4A126804210A431A600D4B1B683B600220FFF78E
:4025800031FE30BF094B3A681A60FB1D1B78181CFFF7E3FDBD4603B090BDC04600000B400C000B4052F1FF0F10ED00E000010B4080B582B000AF00233B60C54B1B68002B21
:4025C00002D0C34B1B689847C24B1A680123134002D0C14B00221A60C04B1B78DAB220231340DBB2002B3CD0BD4B1A6880235B0013400AD0BB4B1B889BB2C0229200134320
:402600009AB2B84B1A8001233B60B54B1A68012313400AD0B34B1B889BB29022920013439AB2B04B1A8001233B603B68002B18D0AA4B1B78DAB201231340DBB2002B01D02D
:40264000012300E00223A74A128892B291B21A1C0B1C13439BB29AB2A24B1A809F4B00221A709E4B1B78DAB220231340DBB2002B00D1AEE19A4B1A68102313401CD09A4B42
:4026800010221A60954B1B78DAB201231340DBB2002B01D0012300E00223924A128892B291B21A1C0B1C13439BB29AB28D4B1A808A4B10221A70B0E1884B1B78DAB208234C
:4026C0001340DBB2002B29D0854B1A68022313400ED0854B02221A60824B1B889BB28822920013439AB27F4B1A8001233B6015E07A4B1B78DAB201231340DBB2002B03D027
:40270000764B25221A7009E0744B24221A70774B1B68002B02D0764B10221A606F4B1B78DAB204231340DBB2002B00D115E16B4B1B78DAB201231340DBB2002B5CD06D4B26
:402740001A680823134034D06B4B1A686B4B19681F2319406A4B1B68CB18D31A7B607B68082B02D908237B600DE07B68002B0AD1644B644A1168644A0A401A6008237B604D
:4027800001233B6011E010E0604B1A685C4B1B68D2185F4B1B68DBB21370594B1B685A1C574B1A607B68013B7B607B68002BEBD11EE0504B1A680423134019D0534B1A68E0
:4027C0004F4B1B68D218524B1B68DBB213704C4B1B685A1C4A4B1A60494B1A68464B1B689A4203D24B4B04221A6001E001233B60494B4A4A1A60B0E0394B1A6802231340A2
:4028000032D0394B02221A60454B1A68454B19681F231940434B186880231B02034001D0012300E00023CB18D21A3D4B1A603C4B1A683D4B1A602B4B1B889BB28422920033
:4028400013439AB2274B1A80384B384A1268802149020A431A60354B344A1168344A0A401A6001233B6078E0324B1A681023134068D022E02A4B1A681C4B1B689A421BD23F
:402880001A4B1B685A1E264B1B689A4205D12A4B40221A60164B40221A60284B284A11681F4A12688A181278D2B21A601C4B1B685A1C1B4B1A6000E005E01A4B1A681F23EB
:4028C0001340082BD6D11C4B10221A6045E0C0469C1100208C0E2440880E24407D2600200C0F24408C260020000F244088260020880F2440CC0F24409826002008032440CC
:402900009C26002060002440FFFEFFFF902600204003244068002440C00F2440ED0F000080260020080224408426002004022440FFFFFEFF8C0F2440800F24404002244083
:40294000A0260020364B1A684023134005D0354B1A68354B1A6001233B603B68002B5CD0324B324A1168324A0A401A60314B00221A60314B00221A60304B1B78DAB202238D
:402980001340DBB2002B19D02D4B1B78DAB201231340DBB2002B01D0092300E00A23294A128892B291B21A1C0B1C13439BB29AB2244B1A80224B60221A702EE0224B234A09
:4029C000116820220A4001D0182200E010221A6023E01B4B1B78DAB210231340DBB2002B1BD11B4B1A4A1268520052081A60144B10221A700D4B0D4A1168164A0A401A60B8
:402A00000A4B0A4A1168144A0A401A60104B104A1268802109060A431A60BD4602B080BD8C0F2440802600208426002060002440FFFEFFFFC80F2440880F2440942600205C
:402A40007D2600208C260020680024406400244000002440FF5FFFFFFFFCFFFF00000000F0B546464F46C0B48FB0161C1F1C0090019100F0ADF9BC4A0023D356041C0D1C3B
:402A8000904602940395013305D0301C391C01F021F8002806D1029803990FB00CBC90469946F0BD0098019901F014F88146002831D1301C391CA14B9F4A01F0F1FA0028A6
:402AC000E9D001230493A94B04AC63604B462362009A019BA260E360994A9A4BA261E36142460023D356266167615A1C0ED0022B0CD0201C01F01EF8002800D17BE0236AB7
:402B0000002B03D003F030F9236A0360A269E36902920393BFE700980199884B864A01F0BFFA002822D0301C391C844B824A01F0B7FA051E2CD0012304938C4B04AC6360C9
:402B400000232362009A019BA260E3607B4B7A4AA261E36142460023D35626616761002BC7D0774A774BA261E361CFE7201C291C00F0A8FF8146002842D0201C291C6F4BA8
:402B80006D4A01F08DFA00286CD10294039582E7301C391C00F096FF002800D17BE7301C391C664B644A01F081FA002800D172E7012304936D4B04AC6360009A019BA2608D
:402BC000E36043461978256226616761002900D17AE05D4A5D4BA261E36102293CD103F0C3F821230360236A002B8FD003F0BCF8226A02608AE703F0B7F8212303607EE760
:402C00000098019900F05EFF0028B6D0301C391C00F058FF0028B0D0201C291C00F05AFF04AC002855D101230493504B20626360009A019BA260E36043461D78266167618C
:402C4000002D41D03D493C48021C0B1C01F09AFDA061E161022DC2D0201C00F06BFF0028C1D1BCE70098019900F02CFF02940395002800D10FE7301C391C00F023FF029495
:402C80000395002800D106E704AC0423049326616761364B636000232362009A019BA260E360264B244AA261E36142460023D356022B04D0201C00F03DFF002893D103F090
:402CC00053F8222303608EE71C4B1B4AA261E361C2E703230493254B2661676163604B462362009A019BA260E36042460023D356002B3DD1164A174B00980199A261E36198
:402D00000E4B0D4A01F0D2F90028CED0124A134B301C391C02F0A0F9061C0F1C00F014FF321C3B1C01F0BCF90028BED10C4A0D4BA261E361B9E7C04600000000000000008E
:402D4000000000000000F03F000000000000F0FF000000E0FFFFEF47000000000000E03F000000E0FFFFEFC70A04002048580100104B0F4A00980199A261E3610E4A0F4BC0
:402D800001F094F9002890D00D4A0E4B301C391C02F062F9061C0F1C00F0D6FE321C3B1C01F07EF9002800D07FE7074A074B7AE7000000000000F07F000000000000000080
:402DC000000000000000E03F000000000000F0FFF0B55F4656464D464446F0B499464B465C00934664088FB00D1C0F1C5A46211C0090061C824602935846114337D069002C
:402E0000490888466849049588452BDC28D066498C4227DC00D180E0002108910499002900DA7EE0002833D15F4B9C4200D196E05E4B9C426AD002988023DB05984201D16F
:402E400000F0E1FB5A4B0299994221D1049A002A1EDB291C009800F04BFD061C0D1C08E0002ED4D0534A131C434433430AD14F4D0026301C291C0FB03CBC90469946A24653
:402E8000AB46F0BD4C4800F057FE061C0D1CF0E70098291C00F012FE534606908C46002B20D0FB0F013B0493049E089B33436AD0424B9C4200DC8DE0414B9C4201DC00F0C3
:402EC00035FC404B984500DC89E3029E002E00DC89E334493248021C0B1C02F0BDF8061C0D1CC6E74046002804D0304BBA0092089A42D6D1029C002C01DA00F0C4FB049E36
:402F0000002E00DA73E3069E6546B2E7029C002C01DA00F076FC009EABE7002800D17BE7A0E729498C422BDC26498C4200DC79E721158C4625498C4501DC00F086FC244B6D
:402F400061465B1A111CD9400A1C9A40824200D068E701220A4002239B1A089362E7154A131C4344334300D181E7164B984500DC7FE3029C002C00DA35E35E464D4678E74F
:402F8000022108914EE70098009A291C2B1C02F0F3FA021C0B1C01F0F5FB061C0D1C68E79C7500883CE4377E0000F07F0000F03F0000E03F000010C0805801000000E041CE
:402FC0000000F043FFFFEF3FFFFF3F431304000033040000E24A0023904509DC0698C54BC34A614602F038F83523069088465B424046DC4902155218D21892460303DA4DA3
:40300000DA4A1B0B1D43934201DC00F0F6FBD84A934201DC00F036FCD64B01229244ED1800240021069A2B1C06920793C900D24B88464344186859680A900B910A9A0B9BE4
:403040000698079902F098FA0A9A0B9B061C0F1C0698079901F074F8021C0B1CA648A74901F090FB0C900D910C9A0D9B301C391C01F0F2FF029003910B1C802189056D10B9
:40308000802000220D430003009201939C4A9D4B29180B1900980199141C1D1C01F0DCFF021C0B1C301C391C02F066FA0A9A0B9B061C0F1C201C291C02F05EFA021C0B1C5C
:4030C0000698079902F058FA021C0B1C0098019901F0C2FF021C0B1C301C391C02F04CFA0C9A0D9B01F0B8FF0690079102980399021C0B1C01F0B0FF041C0D1C221C2B1CFA
:4031000001F0AAFF804A814B061C0F1C201C291C01F0A2FF7E4A7F4B01F012F8221C2B1C01F09AFF7C4A7D4B01F00AF8221C2B1C01F092FF7A4A7B4B01F002F8221C2B1CE1
:4031400001F08AFF784A794B00F0FAFF221C2B1C01F082FF764A774B00F0F2FF021C0B1C301C391C01F078FF029A039B041C0D1C0098019900F0E4FF069A079B01F06CFF98
:40318000221C2B1C00F0DCFF061C0F1C00980199021C0B1C01F060FF674A684B0A900B9100F0CEFF321C3B1C00F0CAFF00240D1C221C009801992B1C01F04EFF221C2B1C2F
:4031C000009001910698079901F046FF5A4A5B4B06900791201C291C02F0CEF90A9A0B9B02F0CAF9021C0B1C301C391C02F0C4F9029A039B01F030FF021C0B1C0698079916
:4032000000F09EFF061C0F1C321C3B1C0098019900F096FF4A4A4B4B0024201C0D1C01F01BFF494A494B06900791201C291C01F013FF009A019B02900391201C291C02F0F2
:403240009BF9021C0B1C301C391C02F095F9404A404B01F001FF021C0B1C0298039900F06FFF464B43441A685B6800F069FF061C50460F1C02F0E8FC0D1C4149041C4144AF
:403280000A684B680698079902920393321C3B1C00F056FF029A039B00F052FF221C2B1C00F04EFF00220B1C00920193101C2B1C221C02F061F9029A039B02F05DF9069ACC
:4032C000079B02F059F9021C0B1C301C391C02F053F902900391089B049C013B234300D0C2E11D481D49049005914BE0C046C0460000000000004043000000000000F03F68
:403300000000000000000000EF4E454A287ECA3F65DBC9934A86CD3F01411DA96074D13F4D268F515555D53FFFAB6FDBB66DDB3F033333333333E33F000000000000084000
:40334000000000E009C7EE3FF5015B14E02F3EBEFD033ADC09C7EE3F000000000000F0BFFFFF0F0001FCFFFF0000F03F8E98030079B60B000000F0FF705801006058010033
:40338000505801000026321C4B465846494602F0F3F8009A019B01F05FFE029A039B041C0D1C5846494601F057FE021C0B1C201C291C00F0C5FE009A019B02900391301CBA
:4033C000494601F049FE00900191009A019B0298039900F0B5FECC4B041C0D1C0F1C8846994200DC19E1C94A8B18034300D012E2AC4BAB4A0298039900F0A2FE009A019B23
:4034000008900991201C291C02F0B6F8021C0B1C0898099900F05EFEA946002800D0FAE14A46BB4B802411156403C918201C0841C11948009C4A9D4B0B1C0903B54E090B3D
:40344000400D0C43B4498519B44E081A04412E414046B343A146002800DA1EE20098019902F08AF800900191009A019B0298039900F066FE4A46120590460024201C8C4A9D
:403480008C4B0D1C0F1C01F0E7FD009A019B08900991201C291C02F06FF8021C0B1C0298039902F069F8844A844B01F0D5FD844A844B261C0D1C041C391C301C01F0CCFD19
:4034C000021C0B1C201C291C00F03AFE041C0D1C221C2B1C0898099900F032FE089A099B061C0F1C02F048F8021C0B1C201C291C02F042F8321C009001913B1C301C391C8F
:4035000001F0AAFD704A714B041C0D1C01F0A4FD6F4A704B02F030F8221C2B1C01F09CFD6D4A6E4B00F00CFE221C2B1C01F094FD6B4A6C4B02F020F8221C2B1C01F08CFD1F
:40354000694A6A4B00F0FCFD221C2B1C01F084FD021C0B1C301C391C02F00EF8041C0D1C221C2B1C301C391C01F076FD604A614B02900391201C291C01F0FEFF021C0B1C22
:403580000298039901F0FEF8009A019B041C0D1C301C391C01F060FD009A019B00F0D0FD021C0B1C201C291C01F0E6FF321C3B1C01F0E2FF0B1C021C4F48504901F0DCFF39
:4035C000464673181C15002C00DC60E1021C0498059901F041FD061C0D1CFFF74AFC029C002C00DA75E400260025FFF742FC4C48089C031C4344234300D01AE1069861465C
:40360000069A6346C3E4291C2B1C0098009A01F023FD061C0D1CFFF72CFC4B005B089946404B994500DC25E13F480B1823430DD1009A019B201C01F09FFF021C0B1C0298BC
:40364000039900F03DFD002800D1E9E62C4A2D4B0498059901F000FD294A2A4B01F0FCFC061C0D1CFFF705FC2349244A0491059288E6029E002EB6DA80200006051C5E4656
:403680004D44FFF7F6FB069A63461B481B4901F079F806908C46FFF732FCC046C046C046FE822B654715973C000000000000000000000000432EE63FEF39FAFE422EE63FF8
:4036C000396CA80C615C20BED0A4BE726937663EF16BD2C541BDBB3E2CDE25AF6A56113F93BDBE166CC1663F3E5555555555C53F0000000000000040000000000000F03FC6
:4037000059F3F8C21F6EA501FFFF8F40000070BF02FCFFFF01FCFFFF13040000FFFF0F00000010C0FFCB904000346F3F6C4B984500DC54E76B4B984501DDFFF7C6FB614673
:40374000584B574A069801F017FF574A574B041C0D1C01F081FC564A564B061C0F1C201C291C01F079FC221C009001912B1C201C291C01F071FC504A504B02900391201CD4
:40378000291C01F069FC021C0B1C4D484D4901F0F3FE221C2B1C01F05FFC021C0B1C4A484A4901F0E9FE021C0B1C0298039901F053FC474A474B01F04FFC021C0B1C009812
:4037C000019901F0D9FE041C0D1C221C2B1C301C391C00F0B5FC00220B1C00920193101C3B1C321C01F0C8FE021C0B1C201C291C01F0C2FE029003916DE500240021FFF736
:4038000011FC2B1C27492648009A00F0BBFF061C0D1CFFF72EFB304A304B0498059901F01BFC2D4A2D4B01F017FC061C0D1CFFF720FB089E012E01D0FFF765FB8020000680
:40384000051C069E6544FFF714FB002801D0FFF71FFB6346C91A221C0A41101C8840A04201D0FFF7E5FA01231A4002239B1A0893FFF7DEFA1C4B994500DDD1E500239846A1
:403880009946FAE58024E4020121FFF7CBFB4A4600F006FA021C0B1C99E66442A146DDE5000000000000F03F000000604715F73F44DF5DF80BAE543E000000000000D03F5C
:4038C000555555555555D53F000000000000E03FFE822B654715F73F9C7500883CE4377EFEFFEF3F0000F03F0000E03FC046C046F0B55F4656464D464446F0B46C4E0D1C78
:40390000371C83B0041C021C0B1C2F40B74200D1ADE0002900DC8BE02F1500D194E0654D09038023090B5B037F190B43FE0700D570E07F10C20FB8465B00002780219B18C6
:403940001624420000970020890345189D4204DC68185B1B009D6D180095D50F5B00013C5B1952004908002CEFD180210026090620250196B446894609E0834246D0D40F1E
:403980005B00013D1B1952004908002D1CD066468C198342F1DD6718E60FBC46F60782464E452CD01B1AA24280414042019F1B1A121B7F18D40F5B00013D019750461B19FD
:4039C00052004908002DE2D1134328D101984308009D394E6A109219ED0702D5802109060B4340460705B9181C1C0D1C201C291C03B03CBC90469946A246AB46F0BDFF0FC6
:403A0000FF077E427E41B2468244CBE79442C2D9181CB4E7C20F5B009B18400089E7019901312FD0019C012323401B195B08CFE76B005B081A43D9D0002700292BD1C10A9B
:403A4000153F40050029FAD08022520311421ED10023490001331142FBD001242022E41AD21A3F19041CD4402143984057E7201C291C01F0F1FA221C2B1C00F061FB041C1E
:403A80000D1CB3E7009A002301320092A0E7202201240023E5E7221C2B1C201C291C01F06BFD021C0B1C00F06DFE041C0D1C9DE70000F07F01FCFFFF0000E03F4B005908E3
:403AC0007047C0464800024B4008C018C00F7047000010800B1C011C021C30B519430220002900D130BD802109068B4216D00D4904205C180C498C42F4D90C4D5C198C42B5
:403B0000F0D90B4C590049080320A142EAD9074C0020A142E6D150425041E3E7002AE1D0EFE7C0460000F0FFFFFFDF7F0000F07FFFFF0F0000207047024901487047C04652
:403B4000000000000000F87FF0B546464F46C0B4CA0F90464B004D4A5B0D9E1883B0041C0D1C8C46071C132E3BDC002E5CDB484F021C37413B1C0B400343994648460B1C0E
:403B8000002827D07B081A1C0A4022430027002A0AD0132E00D176E0291C80229943D2020B1C324113439C464046C1003948634641180C684D683A1C201C291C00F0C0FA0E
:403BC0000090019100980199221C2B1C01F0D4FC021C0B1C101C191C03B00CBC90469946F0BD332E0BDD0B1C8021021CC9008E42F0D1291C00F0A4FA021C0B1CEAE7264AC6
:403C00000126D2187642D64091460B1C021C0642E0D076080642C7D08023B443DB0548460341271C1F43BFE74E0076080643021C0B1C002ECED00903090B01434842014345
:403C400080200003090B0140680C40040B1C03434046C1000F4841180C684D68291C201C00F06EFA00900191009801992B1C221C01F082FC0D1C4146021CC807690049088F
:403C8000031C0B43A6E780273F0685E701FCFFFFFFFF0F0088580100EDFBFFFF00000000F8B53D4E171C331C0B40041C0D1C0A1C1B1525D14B005B0818431ED0201C291CD1
:403CC0002E4B2D4A01F0C8F9344B041C0D1C9F4231DB0E4033150A1C363B3149DB198B4215DD221C2B1C2648264900F061F8244A244B01F0B1F9041C0D1C291C201CF8BD71
:403D000028498B421ED02649DB198B42E9DC002B05DD25491B050A401D1C1543EDE7191C353118DA214B9F42DBDC17481749221C2B1C00F03DF8144A144B01F08DF9041CCA
:403D40000D1CDAE7201C291C221C2B1C00F0F8F9041C0D1CD1E7144936331B050A401D1C1543201C291C0A4A0A4B01F075F9041C0D1CC2E7C046C046000000000000504396
:403D80009C7500883CE4377E59F3F8C21F6EA501000000000000903C0000F07FB03CFFFFFE070000FF070000FFFF0F8050C3000030B5DA0FD2074B005B08111C194330BDC1
:403DC00080B582B000AF78600A1CBB1C1A80BB1C1A887B681A60BD4602B080BD80B582B000AF78600A1CBB1C1A80BB1C1A887B681A60BD4602B080BD80B582B000AF021CF5
:403E0000BB1D1A80BB1D1B88181CFEF76DFBBD4602B080BD80B500AF00F068F8BD4680BD80B500AF00F06CF8BD4680BD80B500AF00F066F8044B181C00F024F8032000F052
:403E40002DF8BD4680BDC046153F000080B500AF024B181C00F004F8BD4680BD153F000080B582B000AF786000F04AF87B68181C00F008F8032000F011F800F037F8BD4639
:403E800002B080BD80B582B000AF7860024B7A681A67BD4602B080BD0000002090B585B000AF021CFB1D1A700623FB603C1C0B34FEF74FF9031C23700B4B0B4A1268C0216A
:403EC000101C8843011CFA1D1078FA68041C9440221C0A431A603B1C0B331B78181CFEF73CF9BD4605B090BD0CE400E080B500AF024B802252011A60BD4680BD00E100E0B8
:403F000080B500AF024B802252011A60BD4680BD80E100E080B500AF11F0C8F9BD4680BD002934D00123002210B488422CD301242407A14204D2814202D209011B01F8E7D5
:403F4000E400A14204D2814202D249005B00F8E7884201D3401A1A434C08A04202D3001B5C0822438C08A04202D3001B9C082243CC08A04202D3001BDC082243002803D0ED
:403F80001B0901D00909E3E7101C10BC7047002801D00020C04307B4024802A14018029003BDC046D90000000029F0D003B5FFF7B9FF0EBC4243891A1847C046002941D054
:403FC00010B4041C4C40A44601230022002900D54942002800D5404288422CD301242407A14204D2814202D209011B01F8E7E400A14204D2814202D249005B00F8E788422A
:4040000001D3401A1A434C08A04202D3001B5C0822438C08A04202D3001B9C082243CC08A04202D3001BDC082243002803D01B0901D00909E3E7101C6446002C00D5404283
:4040400010BC7047002806D003DB0020C043400801E08020000607B4024802A14018029003BDC046190000000029EBD003B5FFF7A7FF0EBC4243891A1847C0467047C04632
:404080008446101C62468C46191C634600E0C0461FB500F063FF002801D40021C8421FBD10B500F093FE4042013010BD10B500F055FF002801DB002010BD012010BDC046EE
:4040C00010B500F04BFF002801DD002010BD012010BDC04610B500F0C3FE002801DC002010BD012010BDC04610B500F0B9FE002801DA002010BD012010BDC046000000002E
:4041000038B50E4B0C4A041C0D1CFFF7EDFF002804D1201C291C01F063FD38BD074B064A201C291C01F028FA01F05AFD80231B06C018F2E7C046C046000000000000E041D4
:40414000F8B55F46564644464D46F0B40C034D00CE0F610A440F2143C400180380465800400D8246D80F84464046400A530F0343D0006D0D371C83465246664500D1A4E0FC
:40418000AF1A002F00DC09E1002A3BD1184300D0EAE0630700D187E00F232340042B00D182E0221DA242A4416442802309191B040B40371C141C002B00D17CE0CE4B013576
:4041C0009D4200D105E1CD4BE40819404807490204430B0B002000211B031A0B0B0D6D051B0513436A08C64DFF071D4015436D006D08291C3943201C3CBC90469946A2469D
:40420000AB46F8BDBC488542C3D0802000040343382F00DDF0E01F2F00DD24E12020C01B1A1C814682405846F8400243944658464A469040421E9041FB40624602431F1CEB
:40424000A21A9442A4416442C91B091B141C0B029FD549024F0A002F00D1C8E0381C01F065FD021C083A1F2A00DDB5E02821091A201C9740C84007439440954200DDB2E06F
:40428000551B691C1F2900DDDCE01F22551B3B1C221CAB40CA40AC40651EAC411343CF401C43391C002574E780231B040B40371C002B00D082E7904B4807E4080443C90806
:4042C0009D4248D009030B0B84E7AA1A9446002A00DC98E05046002852D08748854200D157E78020000403436246382A00DDFCE01F2A00DD4AE120226046101A1A1C824091
:404300008246914658466246D0404A4602439046584652469040421E9041424602436046C3401219A242A441644259180919141C080200D42DE7704B01359D4200D122E13D
:404340006E4B60081940012323401C1C0443CB071C4349081DE7231C0B433AD080231B030B431B031B0B35E7013F002F65D15846221A9442A4416442C91A091B141C66E7CD
:404380005846184300D104E70122524294446046002800D0C5E058460219C3E7002F73D1681C4005400D012800DCDEE05A46A21A9442BF41C81A7F42C71B380200D489E099
:4043C0005A46141BA3459241591A52428F1A664641E700230024FDE6271C283887400024954200DC4CE74549AD1A3940D1E6201C01F09CFC203034E75A461A43531E9A4113
:40440000D2B200271CE7002A00D0DCE0681C4205520D012A00DC8DE0374DA84200D1F3E05D462A19A242A441644259180919CC07520814434908051CABE62F48854200D0EB
:40444000E6E6A6E62B1C1F3B3A1CDA40131C20296CD03F22551BAF403C43601E84411C430021002595E6381C20381A1CC240101C202F5DD04022D71BBB405A461A43531E34
:404480009A4102430027DBE6002D3BD01A4DAA4500D193E080252D047F422943382F00DDACE01F2F00DD29E12025ED1B081C261CA840FE40AC400643651EAC413443F940EC
:4044C0005D462C1BA34592415B1A5242991A55466646BCE6131C3B43141C002B00D0BAE60027002100250024E5E65A461A43531E9A41D2B2002314E7FF070000FFFF7FFF31
:40450000FFFF0F800D1C254358D0FF43002F51D1041BA3459241591A5242891A5546664695E69648854200D0DEE632E6002793E70023A2E7081C2043002D00D0C4E000286E
:4045400000D1F7E05846184300D122E658460219A242A441644259180919141C0A0200D417E6874B0125194013E6081C2043002D39D1002871D15946194303D0191C5C46E2
:40458000664606E600270021002494E6604620381A1CC24060469146202800D1ACE04022121A93405A461A43531E9A414B461A430023B6E6714DAA4500D06FE7191C5C4624
:4045C00055466646E5E5002D22D10D1C254377D0D543002D71D15C445C4592415918524289185546A4E600284DD15946194300D194E0191C5C466646604DCAE50C43611E19
:404600008C41E4B200215BE7051C0021002452E65A4DAA4554D05542802210040143382D00DD81E01F2D00DD92E02022501B0A1C84468240201CE840024390466246944033
:40464000601E844142461443E9405C445C459241CB185242991855466AE65846184300D197E55846271ABC429241C81A5242801A020266D55846041BA3459241591A524204
:40468000891A664685E55846184333D04807E40804438020C9080003014208D0DD08054205D15946CA085C071443291C6646630FC9001943E400314D6BE5304A9245AED1FD
:4046C000191C5C46554664E5002836D05846184310D080254807E408C9082D0304432942E5D0D8082842E2D15D46EA085C071443011CDCE7214D4CE5002353E73D1C203DD2
:404700000A1CEA40151C202F34D04026F71BB9400C43611E8C412C430021D1E680210027C903164D0024C6E50C43611E8C41E4B200218AE7191C5C462BE5191C5C460F4DAF
:4047400027E5031C3B4300D11CE7011C3C1C20E52020404240190A1CC2409046202D0BD04020451BA9400C43611E8C4145462C4300216AE70021CBE70021F4E7FF0700007C
:40478000FFFF7FFFF0B5564644465F464D46F0B41F1C0B031B0B98464B0087B0041C81465B0DC80F161C9A460090002B51D06A4B9A4531D08022414652030A43630FD2004F
:4047C0001A43664B90460025E20091469A44002402953B031B0B9B46FD0F7B00311C5B0D019560D05C4A934254D08021584649030143720FC9001143584A8B469B18F100F4
:404800000020009A04436A4003920F2C00D9ADE0534EA4003459A746404604436ED1002102250824884689460295D2E7009C0298C34649460194022864D0032800D1ABE221
:40484000012800D038E2019A002402400025A14660E0434623434AD04046002800D1C0E101F064FA031E272B00DDB3E128210D1A211C083B4246E9409A400D1C1543221C42
:404880009A40A8469146374B00251B1A9A46002402959EE75A4616430320002EB1D1B34600210220ADE75A4632431BD05B46002B00D18AE1584601F039FA272800DD7DE16D
:4048C0002822171A011C321C08395B46FA408B40171C1F43331C8B40BB46191C214B1B1A00208EE70027BB460021012089E70020012504248046814602956AE703250C24BB
:40490000029566E7019C0394039D01222A400024114DA146002000212403260B0C0D2405114B34432D0523402B435B005B08D207191C4846114307B03CBC90469946A2461E
:40494000AB46F0BD0022802424039146024DE1E700240025A146DDE7FF07000001FCFFFF985801000DFCFFFFFFFF0F805546ED1A0495D84500D953E100D14EE1049C00251A
:40498000013C4E4604944746A946584603020C0E1C430902250C23041B0C0091381C291C0193FFF7BDFA019983464143381C8A46291CFFF7F9FA330C090419438A450CD96C
:4049C0005B460919013B8C4200D947E18A4500D844E102225242934409195346CB1A181C291C9846FFF79CFA071C0198291C784382464046FFF7D8FA36040B04360C334338
:404A00009A4509D91B197A1E9C4200D924E19A4500D821E1023F1B195E4632041743380CBB46009E009F51463F0C32045B1A5946BA46120C0F043F0C904651467A434F43E5
:404A40004146414356467043CF19160CBE19B14202D980277F02C019310C12043604120C4018B618834200D2C4E000D1BEE0191A4846861BB145BF417F42CF1BA74200D1F4
:404A800013E1291C381CFFF74BFA019902904143381C8946291CFFF787FA330C0904194389450CD9029B0919013B8C4200D9FFE0894500D8FCE0029F0919023F02974F460F
:404AC000CF1B381C291C0597FFF72AFA071C0198291C784381460598FFF766FA36040904360C0E43B14509D936197B1EB44200D9E0E0B14500D8DDE0023F3619029D494695
:404B0000761A290439430B0457460A0C1B0C40464546584355437B437A43EB18070CDB199D4202D980256D0252191D0C00041B04000C52191B18964235D300D1FCE00123AA
:404B40001943049E994FF519002D00DCA1E0480709D00F230B40042B05D00B1D8B42894149428B44191C5A46D20107D5904B5C46049E80271C40FF00A346F5198D4B9D42A2
:404B80007ADD039C0122224000248B4DA146C1E680242403474627424CD13C432403240B009A854DB6E63619481EB4425ED9011C9642C4D1009E9E42C1D1C2E7031C283B8E
:404BC000311C99408B46002188E6301C01F0AEF8203072E6283B211C994000228846914651E6201C01F0A2F820303BE60021B14500D33DE7009F5A46B944B945BF417F42EC
:404C00003F19FB18013A9C421ED2984200D97EE000D1B5E0191A93462AE7894500D8ADE64846464642467708D3074608C0071E438146AAE65846204212D1044324032A1CD4
:404C4000240B89465C4D65E6A342E3D1009F4F45DBD9211A93460BE7171CDDE69B46BCE63C432403240B009A534D53E6B24259D800D18AE0011C62E75F46C9087B07039E9C
:404C80000B437C026D0501229946240B6D0D324040E64A4B049FDB1B382B10DD039C0122224000240025A14634E60121494248E7029304E71F1C21E7019C039441E71F2B42
:404CC00040DC3F48049F0C1C3A1858469140DC40904020430A1C511E8A41011C11435A46DA40131C480709D00F220A40042A05D00A1D8A42894149425B18111C1A0234D5C9
:404D0000039C0122224000240125A14602E6009F02214942B9448B44B945894149420919CB18A4E6009D881E6900A942AD416D422C19361900913AE7002B00D033E7002488
:404D4000009437E71F4A049C5D46121BD5402A1C202B1FD01C4E5F46A3199F403B1C19434B1E994111430023BCE75A07C9080A43039F91465B0201221C0B3A400025C9E56D
:404D80004E45C4D89346002172E6009F9F42C9D3011C0FE70023E2E7802424035F463C432403240B019A8946034DB3E5FF030000FFFFFFFEFE070000FF07000002FCFFFFBC
:404DC0001E040000E2FBFFFF3E040000F0B55F4656464D464446F0B40D1C041C8046E80F814618030F03000B3F0B83B084461B48009749005E00DF0F490D9246760DBB4640
:404E000081420CD01548864210D00120B14215D003B03CBC90469946A246AB46F0BD009F01202743F4D10D488642EED1604602430120002AECD10120B142E9D1009B634520
:404E4000E6D1D045E4D1D94506D00029E0D11C43201C441EA041DBE70020D9E7FF070000F0B55F4656464D464446F0B4CD0FDE0FAC461D032D0BB146374E0F034C00AB46D8
:404E80005D0080463F0B640D92466D0DB44232D0314EB54235D0002C0ED1384341424141081C002D0BD0002919D1CC452DD0654668420123184318E0002DF6D1281C5946D4
:404EC0000A4353425341002806D1002BEDD0634658420123184308E00020002B05D14A46504250414042012318433CBC90469946A246AB46F0BD3E1C0643C9D002204042C3
:404F0000F3E75E461643C6D0F8E7AC4207DC0BDA614648424841404201231843E5E76646704201231843E0E75F450AD80ED000205F45DAD265466842684140420123184371
:404F4000D3E76246504201231843CEE7D045F8D80020D045EED3C8E7FF070000F0B556464D4644465F46F0B40D1C83B0041C0190E80F814618030F03000B3F0B844635483E
:404F8000009749005E00DF0F490D9246760DB846814234D02F48864236D0002918D0002E1FD1341C67463A4353425341002C1FD00020002B05D142465042504140420123AB
:404FC000184303B03CBC90469946A246AB46F0BD0098044360426041041C002EE2D00028E9D1C14515D04F46784201231843E8E7002BF6D04B46584201231843E1E7009FE2
:4050000002202743DDD1C5E7674602201743D8D1C3E7B14204DD4A46504201231843D0E7B14207DB00986045E4D80AD0009F00206745C6D24F46784278414042012318432E
:40504000BFE7019A5245D5D8019A00205245F1D3B7E7C046FF070000F0B5564644465F464D46F0B41F1C0B031B0B9A464B0087B0041C80465B0DC80F161C02938146002B95
:4050800068D0694B0299994232D08022534652031A43D200630F1A439246644AE000891880460291002400253B031B0B9B467800FB0F321C400D039300D175E05A4B9842B8
:4050C00069D08022594652030A43730FD2001A43564B9346C018F200002303994E4671401C430F2C00D9A9E0514EA4003459A74653461C4300D087E00025AA46A846082484
:405100000225D1E74946022D6CD0032D00D117E2012D00D058E10D40EDB20024A9460023A0460020002125030A0D1C052D0B1205404B2A43134023435B004C465B08E20783
:40514000191C4046114307B03CBC90469946A246AB46F0BD5346234350D05346002B00D184E1504600F0E2FD031E272B00DD76E128210D1A211C083B5246E9409A400D1C5D
:405180001543221C9A40AA4690462B4B00241B1A0293002588E75B461E430323002E9CD1B3460022022398E75B46334321D05846002800D14EE100F0B9FD272800DD42E17C
:4051C00028210F1A021C311C083A5B46F94093400F1C1F43331C9340BB461A1C164B181A00237AE701230B4000249946A0460E4B97E70027BB46002201236EE700210424AB
:405200008A46884601254FE70C2403254CE700258024A9462403A846034B82E7DA46904603991D1C6FE7C046FF07000001FCFFFFD8580100FFFF0F800DFCFFFF029F160CB5
:40524000381804904046070C0004000C1204120C031C5343041C3D1C7443554398463B1C73436419A44644460293230C63449D4204D9029D802464022D1902951D0C0395A6
:4052800045462C041B04240C1C1905945C46230C051C58432404240C8446381C604365435F438146CC44280C6044BB46814502D980277F02BB442D04070C2D0C00044019D4
:4052C0005546BC462F04E3448446280C3D0C2F1C5743B8462F1C77434243B94647463F0C9144BA46D14446434A4502D980225202B6184F463A0CB6183A0447463F043F0C89
:40530000B8462F1C67435D434443584365190190380C2D184244B846AC4204D9019880235B02C0180190039C029F201C6044C0196045A44147466442A4462B043C049946E1
:40534000240C4C44A046D8448018C246E24490429241574652429146F219E245BF417F424B46BC46D845BF41D4187F4263461F432D0C7F19B24292414C45AD4152426D4243
:405380001543019E7D19AB19E20D5B02059F134342023A439A46531E9A41C30D101C18436402204380465046C0010DD5454601225646049C6B082A401A43F30701341A439A
:4053C000760804949046B246049E634FF319002B61DD404640070BD00F2244462240042A06D042460432424580414042824490465546ED0107D5594B5646049F80201E40CD
:40540000C000B2463B18564A934200DDEAE644465546E2086807104301226C025B050A408046240B5B0D91467BE6DA4690461D1C69E680242403574627421CD13C432403BC
:40544000240B484B6DE6031C283B311C99408B460022C3E6301C00F069FC2030ADE6283B211C994000228A4690468EE6201C00F05DFC203078E65846204207D104430399AC
:405480002403240B89469046364B4AE63C432403240B344B45E6344B049E9B1B382B06DD01230B4000249946A046002339E61F2B25DC049C2D4D46466019524644468640B8
:4054C000DC4082405746301C2243DF40441EA04102433B1C540709D00F201040042805D0101D9042924152429B18021C1D021AD501230B4000249946A046012311E61C48B2
:40550000049C5546001BC540281C202B16D0194E5746A21997403A1C43461A43531E9A4102430023D6E758075B02D2081C0B01230B401043994680460023F2E50022EBE746
:405540008024240350460123044319402403240B8946044BE5E5C046FF030000FFFFFFFEFE070000FF07000002FCFFFF1E040000E2FBFFFF3E040000F8B55F465646444607
:405580004D46F0B40C034D00CF0F610A440F2143C4001803DE0F8046B44646465800760A530F3343D600D14A6D0DBA46400DB346904200D1F5E06246012672409446674560
:4055C00000D1ABE02F1A002F00DC11E100283ED15846184300D0F1E0600700D197E00F232340042B00D122E1221DA242A4416442802309191B04012750460B400740141CDF
:40560000002B00D179E0B94B01359D4200D10BE1B74BE40819404807490204430B0B002000211B031A0B0B0D6D051B0513436A08B04DFF071D4015436D006D08291C3943B0
:40564000201C3CBC90469946A246AB46F8BDA7488542C1D0802000040343382F00DDFDE01F2F00DD31E12020C01B1A1C5E468240FE40324394465A468240101C421E904121
:40568000FB40624602431F1CA21A9442A4416442C91B091B141C0A029ED549024F0A002F00D1D6E0381C00F041FB021C083A1F2A00DDC3E02821231C091A9740CB401F43C1
:4056C0009440954200DDC0E0551B691C1F2900DDEAE01F22551B3B1C221CAB40CA40AC40651EAC411343CF401C43391C002573E780217E4D0027C90300247C4B4807E408EA
:405700000443C9089D4250D009030B0B87E780231B04012752460B40174071E72A1A9446002A00DCA1E0002854D07048854200D152E78020000403436046382800DD0EE110
:405740001F2800DD57E162462020801A1E1C8640B1465E46D6404A4632435E4686409046301C421E9041424602436046C3401219A242A441644259180919141C080200D427
:405780002AE75A4B01359D4200D131E1584B60081940012323401C1C0443CB071C4349081AE71E4300D00AE705E7231C0B433BD080231B030B431B031B0B30E7013F002FCF
:4057C0006DD15E46A21B9442A4416442C91A091B141C60E75846184300D1FDE601267642B4446046002800D0D0E05E463219BFE7002F00D080E0681C4005400D012800DC4A
:40580000E8E05A46A21A9442BF41C81A7F42C71B3E0200D498E05846041BA3459241591A52428F1AE2463AE700230024F7E680231B04012756460B403740E1E6271C283816
:4058400087400024954200DC3EE72949AD1A3940C2E6201C00F06AFA203026E75A461A43531E9A41D2B200270EE7002A00D0DEE0681C4605760D012E00DC90E01B4DA8425E
:4058800000D1F5E05E463219A242A441644259180919CC07520814434908051C9CE61348854200D0D9E697E62B1C1F3B3E1CDE40331C20296FD03F22551BAF403C43601EFE
:4058C00084411C430021002586E6381C20381E1CC640301C202F60D04022D71BBB405A461A43531E9A4102430027CDE6FF070000FFFF7FFFFFFF0F80002D37D0B64DA84234
:4059000000D18FE080252D047F422943382F00DDA8E01F2F00DD24E12025ED1B0E1CAE40B046261CFE404246AC401643651EAC413443F9405A46141BA34592415B1A5242CD
:40594000991A051CE246A6E6131C3B43141C002B00D0A4E60027002100250024CDE65A461A43531E9A41D2B2002300E70D1C254358D0FF43002F51D15A46141BA34592414C
:40598000591A5242891A051CE24684E69248854200D0D1E620E6002790E700239FE7081C2043002D00D0C2E0002800D1EFE05846184300D110E658460219A242A44164423F
:4059C00059180919141C0A0200D405E6834B0125194001E6081C2043002D38D100286FD15946194303D0191C5C46E246F4E500270021002481E6604620381A1CC240664665
:405A0000101C202E00D1AAE04022921B93405A461A43531E9A4102430023A8E66E4DA84200D073E7191C5C46051CE246D4E5002D22D10D1C254376D0D543002D70D15C44AB
:405A40005C459241591852428918051C96E600284CD15946194300D14AE6191C5C46E2465D4DB9E50C43611E8C41E4B2002161E7051C0021002440E6574DA84253D0554279
:405A8000802216043143382D7BDC1F2D00DD8CE02022561B0A1CB446B240261CEE403243904662469440661EB44142461443E9405C445C459241CB1852429918051C5DE648
:405AC0005846184300D187E55E46A71BBC429241C81A5242801A060260D55846041BA3459241591A5242891AE24675E55846184333D04807E40804438020C9080003014213
:405B000008D0DD08054205D15946CA085C071443291CE246630FC9001943E4002E4D5BE52D4A9042AFD1191C5C46051C54E5002830D05846184310D080254807E408C90811
:405B40002D0304432942E5D0D8082842E2D15D46EA085C071443011CDCE71F4D3CE5002355E73D1C203D0E1CEE40351C202F2ED04026F71BB9400C43611E8C412C4300212E
:405B8000D8E60C43611E8C41E4B2002190E7191C5C4621E5191C5C460F4D1DE5031C3B4300D124E7011C3C1C16E52026764276190A1CF2409046202D0BD04026751BA940A1
:405BC0000C43611E8C4145462C43002170E70021D1E70021F4E7C046FF070000FFFF7FFF70B50B1C124C09030E0B5900021C490DDD0F0020A14211DD0E4881420FDC80201E
:405C0000400306430C48401A1F280BDD0B4A521AD640321C5042002D00D1101C70BD084BE818FBE7074BC240C9188E403243F1E7FE0300001D0400003304000013040000F8
:405C4000FFFFFF7FEDFBFFFFF8B5041E31D0C70F00D04442201C00F069F8184D2D1A0A2819DD0B38844024036D05240B6D0D3A1C0026002000210B0D2403240B1B0523436B
:405C80000F4C2D051C402C4364006408D307211C301C1943F8BD061C1536231CB3401E1C0B23181AC44024036D05240B6D0D3A1CDFE70022002500240026DAE71E04000039
:405CC000FFFF0F8010B5041E28D000F02FF8154A121A0A2815DD0B38844024035205240B520D0023002000212403181C0B0D240B1B0523430C4C12051C40144364006108E4
:405D000010BD031C1533211C99400B1C0B21081AC44024035205240B520DE3E7002200240023DFE71E040000FFFF0F801C2101231B04984201D3000C10391B0A984201D396
:405D4000000A08391B09984201D30009043902A2105C40187047C04604030202010101010000000000000000014B18687047C0466C04002070B50E4B0E4D0024ED1AAD10B2
:405D80001E1CAC4204D0A300F35898470134F8E70FF0C4FD084B094D0024ED1AAD101E1CAC4204D0A300F35898470134F8E770BD285901002859010028590100305901009B
:405DC00030B50023934208D0C55C0133CC18013C2478A542F6D0281B00E0002030BD10B50023934203D0CC5CC4540133F9E710BD031C8218934202D019700133FAE7704799
:405E000010B501F063FA10BD10B501F075FA10BD10B500F0DBF810BD10B50749044609780220002907D1204601F08CFA002802D1204609F0A3F810BDF2020020F7B51F4E6C
:405E40000024307815460F46002804D00824B76075802046FEBD002F00D1012401F04CFA0098002805D0172D03D301204002854201D90124EBE7002CE9D12946384600F088
:405E800023F80400E3D1706800F01CF80400DED1706800F015F80400D9D101F035FA0400D5D1009806F060FB0400D0D106F072FB0400CCD101203070C9E70000E00100202F
:405EC0000020704700207047F8B50D4607460026FDF7BCFFFDF7A4FF00F03EFA040065D100F0C8FB040061D13449084600F0D0FD0404240C5AD1A80705D0A807800F04211E
:405F0000081A401985B2172D02D968002E3886B22B48301881B2384601F0BCF8040045D1284F03460246002825D127495E008E5B294610318E4207D99000C01941800221D5
:405F4000521C4170D2B215E08E420BD10020787690001D49C0194680891FC95C891C4170012012E0052A06D1164806461436418302207071012014495E008E5B9100C9190B
:405F80004E80114EB61FF65C4E705B1C521CDBB2D2B2062BC7D30B4800F06CF8002C05D100F084F807490120891E087000F0E6F9002C01D0FF20F8BD0020F8BDE15F0000B4
:405FC000940C0000EE0100208659010010B503480078012801D100F0EDFE10BDEC0100207047000010B5011F0878034A8000105800F0F0FF10BD0000A411002010B50446F9
:4060000004498000085800F053FF002801D00470001D10BDA411002038B5044692B2C9B2684600F06BFF024AA1000098505038BDA411002070B50B49064600204C680546F4
:406040006178002908D06188B14202D32078FFF7D5FF002804D1241D6D1CEDB2082DEFD370BD00001002002010B5002801D0FFF7B9FF10BD70B50B4E0446002570606178A8
:40608000002905D062882078121D0023FFF7C4FF6D1C241DEDB2082DF1D3024800F0ECFFB06070BD10020020002070471CB5002469460C70142001902346054A05480CF0A2
:4060C000E1FC04480068401C00D1FF2420461CBD296100001C0200203EB5124A0146FF2000230124126800290DD0012914D0042908D104206946009308814B8110460CF01A
:40610000BCFC80B23EBD6846009304814381694610460CF0ADFCF4E768460093048143816946EBE71C02002070B54589046841680089030000F026F806240408081D2124E0
:40614000002005F0E9F91BE0022908D0C8B22A4621460AF083FF2046FFF786FF10E002202A4621460AF07AFF2946204600F018F806E000200CF07AF902E020460CF008FD8D
:40618000002070BD30B47446641E2578641CAB4200D21D46635D5B00E31830BC18470000014B0022DB6818472002002010B542890168094B00899C68022803D0032804D0AA
:4061C000FF2010BD0023012003E0121D002392B20220A047002010BD20020020704700000248002141600180418070472002002070B50C46002186B016460391012802D007
:40620000022859D116E003A9012006F0E8F801281BD1039D324621462846FFF7E0FD0095287801900220694608814E816846FFF7BDFF41E0214D002B686809D0049004A9A9
:40624000022006F0CCF801281DD0022006B070BD002812D0298840182146FFF7C0FD28880024801980B228806988091D884206D12C801348FFF79AFF03E00320E6E78842C8
:406280001AD96C6018E004986860E278A378110219430B4A698000231060E3565360032313815181A1788170E178C1706178417021780170042028800020C7E72002002092
:4062C000C4110020F7B5022784B016460546022802D0042D29D106E005980090019568460781428113E01046FFF7A4FE040016D032460599FFF773FD684601950094078189
:406300000B4B4681DB6800223146059898470948694600680CF0B1FB012007B0F0BD044B0022DB683146059898470020F5E70000200200201C020020014AD160906070470D
:4063400020020020034801688068081A0A21484300097047D011002010B5FDF767FD542204490548FFF73BFD03490120C870002010BD0000965901002014002010B5FDF7BC
:4063800049FD10BD70B5134C2368002B08D0207B1149C20705D04008400020738868A08070BD88680B4AA18880B29268814203D90A4D691A091802E0814202D2411A51185C
:4063C000A160A080A0689842EAD300F015F80CF071FB70BDD0110020C0102E40FFFF000010B508461946FFF7A7FF10BD704710B5FFF768FF10BD000003480021016041601F
:406400008160C16070470000D011002010B502000DD0FFF7F1FF074C0321207B0843207310010A21FDF7C0FD2060002010BDFF2010BD0000D011002000B504480A218068CD
:4064400048430209FFF7D8FF104600BDD01100200248007B8007C00F70470000D011002070B558490868002802DA574B01221A70022290430860554800695249C00B40310D
:40648000096A08426CD0012000F0BEFA4F4850497C30FDF7A3FC4B480E216C30FDF79EFC4A4820218430FDF799FC484814219C30FDF794FC4548FF21C131A430FDF78EFCA9
:4064C0004248FF212F31B030FDF788FC3F484149BC30FDF783FC3D483F49AC30FDF77EFC3D493A48491CB430FDF778FC37483B49B830FDF773FC35483949CC30FDF76EFC13
:40650000324838490830FDF769FC30483649A830FDF764FC2D4835498830FDF75FFC2B4833498C30FDF75AFC28481921C9029030FDF754FC2F4D287E697E0C020443A87FBF
:40654000E97F2D4A090201432C48914201D1072C08D035229201914208D1042C05D005E0FF2070BD0146042400E0014617486C30FDF734FC154821467430FDF72FFCA87E9B
:40658000E97E0902014301204003814201D0002900D11B490D487830FDF720FC2A7F687F010218481143814204D01748814201D0052901D113490A3904488030FDF70EFC58
:4065C000002070BD00F02E403002002000002E4055650000320300002F3F00003102000010520000EC160000FA12000031D000003AE30000C0F0FF0F580B0000580D00008C
:40660000022000000F0F00000505000070B50646581C80B245086D00002408E0304600F07FF81055000A1119A41C4870A4B2AC42F4D3D80705D0D0182038D15CC47FD454AE
:40664000C17770BD30B50A4C002100195B1E07E0541864782502545C2C430480891C89B29942F5DB994201D1515C018030BD000000102E4010B5FF2000F0C6F90F49FF20F3
:4066800088700E481021801D41800121417001700A490020091D4870FFF7E2FE04000AD100F0DAF807210648FDF78AFB044807211830FDF785FB204610BD0000300200204D
:4066C000CC112E4030B504465B1C1804450C002308E0204600F024F8241D59005B1CA4B250529BB2AB42F4D330BD000070B500210A4D5B1E0AE0541864782602545C344331
:4067000046193480001D891C80B289B29942F2DB994202D1515C4019018070BD00102E40014940180088704700102E40014A80180180704700102E4010B5084900204870A9
:4067400000F08AF807210648FDF73AFB044807211830FDF735FB002010BD000034020020CC112E4010B506480078012803D102210448FDF733FB02490020091F087010BDA9
:406780003402002070F02E4010B50B46062812D006DC01280CD0032801D1FFF7CDFF10BD0A28FCD00B28FAD105480078107010BDFFF760FF10BD1146184600F057F910BD2A
:4067C00036020020F8B5214DAC6A0127A007204E002818DA3078062810D1286A384328621C480069F903084381B21A481030FDF7F5FA301F4770042000F006F91348022108
:406800002830FDF7DDFAE00711D0062000F0FCF80F49FF20091F88707078002802D1686B38436863094801212830FDF7C9FAE0050BD53078042802D1052000F0E5F80348A5
:40684000FF2101312830FDF7BBFAF8BD40F02E403402002000002E4010B503212348FDF7BDFA0120FDF7C8FA20483038406A204C80076178800F890001431C480C38FDF79A
:40688000ADFA6078002808D0401E022181401820FDF7EAFBC000083800E0B82081B21548FDF79CFA1348032109021438FDF796FA10481149B830FDF791FA452189010F487A
:4068C000FDF78CFA0D480321001FFDF787FA0C490C48FDF783FA0B480B496038FDF77EFA084801218838FDF779FA10BD70F02E4036020020D8102E4090890000041E2E40C1
:40690000FF0F000058122E4020900000044800684007400F022801D0002070470120704700010B4000B5FFF7F1FF002805D009480168C908C900016000BD0748016A49086C
:4069400049000162054801690122D2039143016100BD000000010B4040F02E4000002E400849087806280BD148780749002803D1486B400840004863C86A01221043C862D2
:40698000704700003402002040F02E4001480078704700003402002002488078022800D0012070473002002000B50300FFF7EAFB080D050D0B070507090D012000BD032009
:4069C00000BD042000BD022000BDFF2000BD0000074A9168D26889B2064B92B2994204D105498A4201D1012100E000210170704780002E4033D000003FE3000001494870EE
:406A0000704700003402002010B50446FDF708FA072C01D9FF2C01D102480470FDF7FAF910BD00003402002001498870704700003002002010B50A4A141D012808D009498A
:406A40001046FDF7CBF908492046FDF7C7F910BD04491046891CFDF7C1F90349491DF3E788002E4031D000003AE300000078074AFF2803D04C2804D9553803E010780870B6
:406A800070474F3808701070704700003302002010B50F4A002313600E4A13600E4B18600E4801600E49012008600E490860000290600E490C4808600D4914300860FF38B0
:406AC0001538506000F0BCF800F0CAF9002010BD540200203C020020680200206C0200205802002048020020E01200204C02002060020020014610B50020002910D0094BFA
:406B00001A689C685118A14209D25868196080188A0704D08A07920F891A091D196010BD002010BD3C020020F8B50024164E671E321F3D463168136806E014226243103241
:406B40008A58521C1BD0641C9C42F6D36A1C14D02C461422544322460C3288500C214843FFF7C8FF3168002808510AD031680020103408517068401C70602846F8BD25463B
:406B8000E4E73846F8BD00004C020020F3B50026F64381B000281BDB1E490968884217D80299002914D01B4F142204463F1D54432546396810354859401C09D0FDF730F9B9
:406BC00038682F1F4159C359994203DBFDF722F93046FEBD214608310091465801590C20704308180C220299FFF7F9F80948761C001D0068C159B14200D100260549009ACC
:406C0000091D865008684159491C4151FDF702F90020FEBD48020020002803DB07490968884202D90020C043704704491422091D096850431030085870470000480200206F
:406C4000F0B500200D4A451E0346171F50600FE014260146714314680E1DA3510C461668083433511668083435511468401C635039688842ECD30020F0BD00004C020020E7
:406C8000F3B50026F64381B0002841DB2349096888423DD8029900293AD0204F142204463F1D54432546396810354859401C2FD0FDF7B6F83868415900292BD0211D0091D0
:406CC00046580C21005971430F46C1190C220298FFF785F811480021001D0068761C00590C34C0190160416081600C48001D00680159B14200D100260849009A091D865068
:406D000008684159491E4151FDF784F80020FEBD3046FEBDFDF77EF8FAE7000048020020FEB504460D4600201E49089E0860471E009001900290002C11D0486885420ED2BE
:406D4000002A0CD0002E0AD0642E08D808460C3001681C2068430C18207A002801D03846FEBD0120226020721846FFF7DDFE6060401C13D06681A6810A4827610C3067617A
:406D80000179A94200D205710021684601810A462846029B00F040F82846FEBD00202072DDE700005402002038B50124009400F039F838BDFEB50027164EFF433D4600245A
:406DC0000EE01C20316860430818017A002906D04068FFF721FF002801D0254603E0641C3079A042EDDA681C12D01C2130684D434419FDF715F869466068FFF741FF05469B
:406E0000FDF708F8002DD9D1216868468847D5E7FEBD00006002002038B50024009400F001F838BD1FB500220C49541E0A60002811DB496888420ED808491C220C3109682C
:406E400050430818406801A9FFF7A0FE401C02D0002004B010BD2046FBE7000054020020F0B50021114A4D1E174611710C3F0B46BD6016E008461C2460431668041D35517C
:406E800014680646235014680836A3551468361DA353044616680A34335318301468491C255078688142E5D30020F0BD6002002038B500210091002811DB0F4909788842F6
:406EC0000DDA0D4D04010C3529680859002807D0201D0818694600F05FF9002801D0002038BDFCF79DFF28680F34015D491E0155FCF790FF009838BD70020020F7B582B0BC
:406F00000025ED43029800240E460560002A49D0002E47D02D48D21C02402D48174601780C30006805E022018258002A0FD0641CE4B28C42F7D3691C3ED02C01211D40187A
:406F40000191314600F016F900282BD101E02546F1E71F480C30016820460C300F521C480C30016820460E300E5419480C30016820460F300E543846704300F0ADF8144973
:406F80000C310968002808510CD00024009011E00F480C30016801980818009900F017F9002802D0012005B0F0BD0098C019641CE4B20090B442EBD30298054905600C3101
:406FC0000879401C08710020EDE70000FCFF000070020020F8B50D4600216A468C461180002839DB23490978884235DA214B04010C3319680A59002A2ED020460C300B5AC1
:40700000801C0E5C184670438018954224D3854222D2002006E007465F43BF18AF4206D0401CC0B2B042F6D36046002814D0114E271DC8190C366A46294600F0F2F8002863
:407040000AD168460088012808D030682946C01900F0BDF8002803D00120F8BD0020F8BDFCF7DEFE30680F34015D491C0155FCF7D1FEF3E77002002003460020002B06D078
:40708000034A5168906852884018511A198070477002002070B5002400F0DCF80D4E002132460C3271600EE0200113680546195013680C355953AD1C13680F3059551368F1
:4070C000641C1954E4B230788442EDD31171002070BD000070020020014610B5002000290CD0C91C064B8A08596892005C888A18A24202D898685A60401810BD002010BD22
:4071000070020020F8B5002827DB19490978884223DA174C05010C342168485900281CD028460C30085A009028460E300E5C401C0E5420682F1DC01900F064F800280CD1E7
:407140002068002445590EE0094829460C300068C01900F03CF8002801D00120F8BD00982D18641CE4B2B442EED30020F8BD00007002002030B50D4604000BD0A800FFF7E1
:40718000ABFF6060002805D000202570C0436080002030BD012030BD70B50D46040005D0002D03D00220205E002801DA012070BDFCF736FE0221615E6068890040582860F9
:4071C0006088401E6080FCF725FE002070BD70B50D46040007D0002D05D002212078615E401E814201DB012070BDFCF719FE6088401C00B26080616880000D50FCF70AFE6B
:40720000002070BD10B5040009D0227800216068FEF7EEFD0020C0436080002010BD012010BDF0B500231D46002802D00224045F0AE00120F0BD46689F00F6598E4201D17A
